:200000000040002079DC000001C9011001C9011001C9011001C9011001C9011001C9011009
:1C00200001C9011001C9011001C9011001C9011001C9011001C901103FC9011089
:20003C002DE9F04FADF12C0D00F0F6FBB348B14D4FF00009C846A4380790A868AE4A49463E
:20005C004FF0FF3300F0D8FB0028F6D0484605900DF11A0105AA06A80EF0B6FD002840F0C0
:20007C008980BDF81800012710287ED128789DF81A10884279D1059C20884FF6FF718142AB
:20009C0073D02678913E5DD01F3E6ED1607816282CD020797E281DD07F280FD000904846E9
:2000BC004E4601904A46029640F2CB410392B0A304963A46AAA00AF0F1F834E0208900901D
:2000DC004E4601964A46029240F2C6410396B2A30492EEE7207A00904E46019640F2C1419A
:2000FC00029603220396B3A30496E3E720794E46009040F2A941019602220296BCA30396B0
:20011C0097A0CDF810900AF0C9F86E6A8EB94FF6FD70CA49CA4A00904B46102006F000FD30
:20013C006E6AC3B22BB1217904F1080000F068FB1BE046F0010638466E6208F0D7FF4F46A7
:20015C002C6112E060780E280FD1CDF8009048464E464C46019040F28C413A460296C7A3FB
:20017C0003947FA004960AF099F8059810B10FB110F0E1F9E86800F047FB00287FF45DAF67
:20019C00E86800F045FB014601F10904097A0890002900F08581491E00F0B280491E00F063
:2001BC009580491E00F0A282491E64D0491E43D0491E03D00A3900F094829AE2686A400865
:2001DC00C0F097822F69002F00F09382A87807F10806401CA870C14900967A883B7910204E
:2001FC0006F09EFC5FFA80FABAF1160F14D06F6ABAF1040F10D037F001076F6208D14FF637
:20021C00FD708E498E4A00900123102006F088FC504608F06BFF6CE2286900790090A87848
:20023C004F464E464C46019002220297B9A3039640F21551049419E1C77A00F10904002F0C
:20025C000CBFC0A0C2A000904E464F464FF443714846019001220297BFA3039640A00497F4
:20027C000AF01CF8484600909B4922884B46102006F056FC3DE200F10904407A0D2814BFC0
:20029C00C2A0C5A06778002F0CBFC6A1CAA14E460122CEA300904F460191484602904FF48E
:2002BC00637103972EA0049609F0F8FF27780D3F09D07F1E40F01D8201200146641C2246DC
:2002DC0005F0BCF815E201214846F7E7278841F2101022463F1A06D0103F40F00A82207997
:2002FC006188641DEBE710795188521D07F0BCFBFFE1C046C00700200F0000C0E80800207B
:20031C0027880FF2D02CB8A2BDA1B7F5895719D0103F40F0EE81B4F8050040B1401E04D026
:20033C00401E08BFCDF824C002E0099200E009912079012840F0DD81099ED0A0D3A740F2C9
:20035C0065418AE0B4F8050000287BD0401E04D0401E08BFCDF828C075E00A9273E0C046FF
:20037C0070726F6A6563745F7A65726F2E6300C052656365766965642047415454204D65B1
:20039C0073736167652E204F70636F64653A2030782530327800C0464D54552053697A65CE
:2003BC00206368616E67653A20256420627974657300C046466C6F7720636F6E74726F6CB2
:2003DC002076696F6C617465642E204F70636F6465206F66206F6666656E64696E672041BB
:2003FC005454206D73673A2030782530327800C04F7574676F696E67205246204649464FC9
:20041C002066756C6C2E2052652D7363686564756C65207472616E736D697373696F6E2004
:20043C006F66206D73672077697468206F70636F64652030782530327800C04609D2000046
:20045C0043FF00000A912779A7B17F1E40F05181C9A740F20741C4A00A9E00900197029656
:20047C004C4603944B460493A4A30122AA4809F015FF3EE1BAA74FF47F71ECE7484349202C
:20049C00436F6D6D616E6420436F6D706C657465204576656E74207265636569766564009F
:2004BC00278841F210103F1A00F0B380203F40F020812779A7B17F1E40F01B8160790090A8
:2004DC00A0790190E0794F464E460290ACA3039740F237410496C8E719EC0000DDFE001076
:2004FC00C448494628220BF059FBC248641D272221460AF049FABF4E97A760A000904C46C7
:20051C0001974A4602964FF486610394ABA30492ABE7C0465265747279696E67206D657309
:20053C00736167652077697468206F70636F6465203078253032782E20417474656D707495
:20055C0020256400446973706C6179696E6700C053656E64696E6700426F6E644D67722071
:20057C005265717565737465642070617373636F64652E2057652061726520257320706130
:20059C007373636F6465202530366400427574746F6E203100C046C0427574746F6E203050
:2005BC0000C046C01B5B33336D72656C65617365641B5B306D00C0461B5B33326D70726523
:2005DC00737365641B5B306D00C046C0257320257300C046496E6469636174696F6E73208C
:2005FC00656E61626C6564004E6F74696669636174696F6E7320656E61626C656400C046C9
:20061C004E6F74692F496E642064697361626C656400A178079A601D0CF050F92779661DE3
:20063C000FF2B41B0FF2B41A002F33D07F1E60D144A0009046A701976D4F40F2C7310122FD
:20065C005EA302974F4603973348049709F026FEA869627907210DF091FF377807B1D34661
:20067C0034A000904E46CDF804B04F4602974C46039640F2CF31049431E0C0464461746139
:20069C00205365727669636500C046C053747265616D00C0564C2BA0009024A701974FF4B8
:2006BC006E71012245A302944F4603971A48CDF8108009F0F3FDA869327806210DF05EFF93
:2006DC00377807B1D34615A00090CDF804B04F46CDF808804E4603974FF47071049640A30F
:2006FC00C3E60820494603F0F3FC02E0407A05F0B5FF08980EF0C8F83CE5C04643434344C5
:20071C00204368616E6765206D73673A2025732025733A20257300C07C0300001B5B33313B
:20073C006D4C4544301B5B306D00C0464C45443000C046C01B5B33326D4C4544311B5B3053
:20075C006D00C0464C45442053657276696365004C45443100C046C0537472696E6700C041
:20077C00425554544F4E3000427574746F6E205365727669636500C0425554544F4E310017
:20079C0056616C7565204368616E6765206D73673A2044617461205365727669636520533B
:2007BC00747265616D3A20253032783A253032783A253032782E2E2E00C046C056616C7551
:2007DC0065204368616E6765206D73673A2025732025733A202573006F6666006F6E00C057
:2007FC005475726E696E6720257320257300C04644080020E8080020DFF800F0F99B011098
:20081C00DFF800F089840110DFF800F04FBF0110DFF800F0F1BF01102DE9F04F914C04F142
:20083C0008012046ADF1940D0CF02EFF0FF2741A00200746009040F2DF11019701220297C3
:20085C005CA303975046049709F028FD04F1480528463946E76100F027FB04F1600004F1C1
:20087C006C01E56009F0B4FEA06170B90097384601904FF4F8710290032203905DA30490A5
:20089C00504609F00BFD00F013FB04F1540004F1780109F09DFE606178B9009738460190C4
:2008BC004FF4FB710290032203905BA30490504609F0F4FC00F0FCFA60696B490FF089FD2A
:2008DC0070B10097384601904FF4FE7102900322039059A30490504609F0E0FC00F0E8FA6C
:2008FC0005A839462422082300F0E6FA604E4FF47A7832250D20DFF8749132680B9005AB47
:20091C0004F1E000B8FBF2F18AB26A43494600F0D7FA0E2031680B9005AB04F58270B8FB67
:20093C00F1F189B24D432A46494600F0C9FA0125ADF83C7040F205300DF18E028DF88E506D
:20095C00294602F0F5FF40F2063002210FAA02F0EFFF621C4FF44270294602F0E9FF04F151
:20097C00940240F20730142102F0E2FF04F1BD00394620220BF012F904F1940604F1BD0892
:20099C003846325C401CC0B231180B78092B18BF082B01D11F2A6DDB8018C0B22028F0DBD7
:2009BC006DE0C04670726F6A6563745F7A65726F2E6300C0496E697469616C697A696E6776
:2009DC00207468652075736572207461736B2C2068617264776172652C20424C4520737428
:2009FC0061636B20616E642073657276696365732E00C0464572726F7220696E69746961F9
:200A1C006C697A696E6720626F617264204C45442070696E7300C0464572726F7220696E2F
:200A3C00697469616C697A696E6720627574746F6E2070696E7300C04572726F722072650F
:200A5C00676973746572696E6720627574746F6E2063616C6C6261636B2066756E637469FC
:200A7C006F6E00C0C007002071AB000045B90000B81C0100491C521E404609F085FFCDF84A
:200A9C0000803E460197504640F22E2102962A460396C6A3049609F001FCC24F1020062284
:200ABC00A023394606F03CF810200722A023394606F036F810200822A023394606F030F835
:200ADC0010200922A023394606F02AF810202A461E23394606F024F88DF88F500EAF8DF82D
:200AFC00905028468DF892004FF481620E9604238DF89160AC4D00971020294606F010F8E1
:200B1C000DF18F004FF48062012300902946102006F006F824A840F202420123009029465B
:200B3C00102005F0FDFF0DF191000090294640F203420123102005F0F3FF0DF19200294639
:200B5C0040F2064201230090102005F0E9FFC34910204FF0FF3205F0E3FFC14910204FF042
:200B7C00FF3205F0DDFF1027DFF8F892BE48BF4A0097132349460190384605F0D1FF04F18B
:200B9C00A80032461523BA490090384605F0C8FFBB46B948B74FCDF800B00523494601904F
:200BBC0007F10C02584605F0BBFFB0463546052000908CA30195D82102950122039585A06B
:200BDC00CDF8108009F06AFBAC4E94F800A0307880000FF0E8FCAA4D0146E96039B34FF65D
:200BFC00FF700DF037FE307880000FF0DCFC01462961E1B14FF6FF700DF02CFEA149584673
:200C1C0005F11402009007230191494605F088FF474607200090FE2101970122029771A38A
:200C3C00039779A0049709F039FB85F800A03078277880000FF0B7FC934E0FF2E019014665
:200C5C00F160D9B14FF6FF700DF004FE584600908E490191834906F14C02062305F060FFC5
:200C7C000620009040460190EB210290012203905CA30490484609F011FB37707D4904F1AF
:200C9C003000474688600FF2A41800900122019743460297E72103974EA0049709F0FEFA4D
:200CBC0004F13800A8603D46009040F20F110195012202954346039553A0049509F0EEFAA0
:200CDC0004F14000B060FC210090012201953E460296434603964846049609F0DFFA0DF117
:200CFC003E00282239460AF059FF69490DF16600282209F049FE01210DF13E02384606F00B
:200D1C00B3FE01200DF13E02014606F0ADFE384601210DF13E0204F091FB01200DF13E0202
:200D3C00014604F08BFB384628210DF1660204F071F8012014210DF13E0204F06BF8554DBF
:200D5C0069782878A1B904F1200129620EF060F905F154070096024605F14400019005F1B4
:200D7C001C0302974C490393AB78584605F0D8FE4A4904F12802584605F0D2FE20780EF03D
:200D9C0047F947490246584605F0CAFE20780EF03FF944490246584605F0C2FE25B0BDE854
:200DBC00F08FC046ADEA0000B94700004E616D6520696E20616476657274446174612061E2
:200DDC00727261793A201B5B33336D25731B5B306D00C0466C65645F736572766963652E32
:200DFC006300C0465265676973746572656420736572766963652C20256420617474726936
:200E1C00627574657300C046627574746F6E5F736572766963652E6300C046C064617461B0
:200E3C005F736572766963652E6300C0526567697374657265642063616C6C6261636B7327
:200E5C0020746F206170706C69636174696F6E2E2053747275637420257000C0E1F50000A1
:200E7C0069F80000B9F10000241C0100240D0020C5B600000816002050190100694F0020BE
:200E9C0098140020CC18010050130020F8180100A1180100C80F0020DBDE0000D9FA0000B4
:200EBC005188011031810110DFF800F0A1B60110DFF800F019B10110DFF800F0C1BF011040
:200EDC00DFF800F069B201102DE9F84F0E4607465FFA86F8300824BF3A484640DFF8F090B4
:200EFC00394C4FEA8805A9F10100405907EA0602144086EA00013940B843C1F3006307F413
:200F1C00E0210443B1F5E02F01D1600E14D307F4E020184310D004F4E020B0F5A02007D027
:200F3C00B0F5803004BF24F4003444F4A02403E024F4803444F4C02424484FF0010A0AFAB0
:200F5C0008FBC0F800B00FF024FB4946230A6D182B70220C6A70210EA97000F03DF81D4C32
:200F7C00524604F1D00ADAF80010002002FA08F50D4218BF101C5FEA000905D1F80D24BF91
:200F9C00C6F3805004F80800380E0DD30FF001FB310E34BF0021291CDAF80020AA431143BC
:200FBC00CAF8001000F018F8B9F1000F05D0F80D24BFC6F3805004F808000448C0F800B08C
:200FDC00BDE8F88F006000A0007F077FE02002600110084000200240DFF800F061C00110AE
:040FFC0030BF70474B
:20100000B41200001810000069D30000FDB301106DC00110FDAE011099B50110000000008C
:08102000000000002D0000009B
:20102800B01200003C100000B1C00110A9BF011067C0011069B80110000000000000000035
:041048003000000074
:20104C00B012000060100000BDC00110CDB30110D9BD01106DB3011000000000000000005B
:04106C00310000004F
:20107000000000003C1A002004000000000000000000000020000000E8C9011030000000D4
:2010900028100000441A00200400000000000000000000000C000000D8CA011018000000AF
:2010B0004C1000004C1A002004000000000000000000000024000000F0CA01101800000033
:2010D00000000000541A00200400000000000000000000001000000018CA01102C0000003F
:2010F00000100000641A0020040000000000000000000000200000006CCA011024000000A3
:20111000FFFFFFFF6C1A00200400000000000000000000002800000090CA01102400000062
:20113000FFFFFFFF741A00200400000000000000000000001400000008CB011018000000E1
:20115000FFFFFFFF7C1A002004000000000000000000000058000000B4C9011034000000AF
:20117000FFFFFFFF841A00200400000000000000000000001000000020CB0110180000007D
:20119000FFFFFFFF8C1A00200400000000000000000000001C000000B4CA011024000000AA
:2011B000FFFFFFFF941A00200400000000000000000000003800000044CA011028000000D2
:2011D000FFFFFFFF9C1A00200400000000000000000000005400000078C901103C00000047
:0811F00002000000801C010058
:0411F80001000000F2
:0411FC0000000E00E1
:0412000000000F00DB
:0412040032000000B4
:0412080001000000E1
:04120C009019002015
:0412100000020000D8
:0412140000000000D6
:0412180001C90110F7
:04121C0000000000CE
:0412200000000000CA
:0412240008000000BE
:0412280000002200A0
:04122C00E0170020A7
:0412300000000000BA
:0412340000000000B6
:0412380008000000AA
:04123C005019002025
:0412400000000000AA
:0412440000000000A6
:04124800080000009A
:04124C00000000009E
:04125000000000009A
:041254000000000096
:041258000000000092
:04125C00010000008D
:0412600078180020DA
:041264000600000080
:041268000100000081
:04126C001417002033
:04127000000000007A
:041274000000000076
:041278000002000070
:04127C00000000006E
:02128000290043
:02128200010069
:02128400250043
:02128600300036
:02128800310033
:02128A002D0035
:02128C0001005F
:01128E00015E
:08129000030000003C1C0100FA
:0812980000000000000000004E
:0412A0000000010049
:0412A4000000030043
:0412A80013C401105A
:0412AC00C7FF000078
:0412B000B812000070
:0412B400B81200006C
:0412B8000000000032
:0412BC00041A0020F0
:0412C0006B010100BD
:0412C4002000000006
:0412C800841B010082
:0412CC00701A010093
:0412D00029C101101F
:0412D4005FE50000D2
:0412D8006FE80000BB
:0412DC00A1C7011095
:0412E000A3C701108F
:0412E4000000000006
:0412E800BF1A010028
:0412EC00581701008E
:0412F0007017010072
:0412F400401701009E
:0212F8000200F2
:0212FA000900E9
:0212FC000100EF
:0212FE000000EE
:0113000001EB
:04130400F9000100EB
:0413080001E80000F8
:04130C00DDF600000A
:041310007DEB000071
:0413140039E80000B4
:041318001DDB0000D9
:04131C0071B20000AA
:04132000B103010014
:0413240099CF00005D
:0413280015C70110D4
:04132C0025C70110C0
:201330002DE9F04FD44C04F118012046ADF1340D0CF0B0F900264FF6FF70667001212082BC
:2013500004F1A4000DF042FB022104F1C8000DF03DFB042104F1EC000DF038FB4FF0040A12
:2013700004F1440810224046314684F802A00AF01BFC04F154091022484631460AF014FC2B
:2013900004F11C073E6004F10A052E70E671267207206072CDF80080DFF8F8820222102013
:2013B0000346414605F0C2FB102003224146CDF80090034605F0BAFB102052464146009791
:2013D000134605F0B3FB4FF0080B4FF0030905F12A00079005F17900089005F11E000990F9
:2013F00005F15A000A9024350B9517E06078A28FE18FB4F84050B4F8423006280ED1ADF87E
:201410000A20ADF80C10ADF80E50B948ADF810300FF0E3F8012002A90AF084F8A069B34AC6
:2014300031464FF0FF33FFF7EDF9071CF6D0059606A80DF11A0105AA0DF0CCFB002840F0C2
:20145000BD81BDF818102078102940F0B3819DF81A10884240F0AE81059D29884FF6FF723B
:201470008A4200F09C812B78A23B00F07F812E3B40F0A081A978B046002900F03B81891EC6
:2014900000F00A81491E012940F2D980891E00F09C80491E6FD0491E5CD0083900F05681B1
:2014B000891E40F0598194F83A30A888052BADF8080047D001208DF812008D480FF08DF840
:2014D00094F83A0001281ED004281CD003280DD002280BD00598C188ADF80A100189ADF826
:2014F0000C104189ADF80E10818927E0A08FE58FADF80A00B4F84030ADF80C50B4F84210B5
:20151000ADF80E301AE0A08FE9888842D8BF081CADF80A002989E08F8842D8BF081CADF8BF
:201530000C006989B4F840008842D8BF081CADF80E00A989B4F84200884200DC0846ADF8C0
:20155000100001E08DF81260A849102002AA05F0EDFA01E1A6480FF040F86B78002B40F0A5
:20157000FB80E88860822889A0826889E08260480EF04CFEF0E0AA88B449102005F0D6FA84
:201590000798414606220AF00FFB6682A682E682A879207356480FF020F895480FF01DF817
:2015B0004FF001084FF6FF702379208253B9A879082812BF84F801A00520607040460EF01D
:2015D00055FEC9E084F80190C6E06B787BBB291D07980A680260898881800623637068897B
:2015F0002082E8896082288AA082688AE082E878E07294F83A00012818BF02280BD199495E
:2016100010201F2205F092FA4FF47A7180B2414337480CF0F1FF688900909149CDF804A0B5
:20163000EA7810202D1D2B4605F080FA97E06878312840F08880E67084F801A08FE06B7831
:20165000002B40F08080A878E3896178032815D0E078257923B9012814BF2671E67006E009
:20167000054304D0804819460CF0C6FF61780729E2D10620607072E0C80F0020062907D055
:20169000E578002D08BF84F8019068D00220F1E70720EFE79DFA00006B78002B53D1EB7881
:2016B000617893B902291DD007291BD0062902D12079012816D1032914D06B480EF0A6FDB3
:2016D00080B901200EF0D2FD0CE00DF0A7FC0246A07962490090089843460190102005F0CC
:2016F00025FA68706D78002D2DD135E007000080901000206B7833BB5C48574900900222AE
:201710001020034605F012FA59484A46524900901020034605F00AFAED1C099829680160D5
:20173000A98801238180207863700DF077FC024601230A9D6079494900901020019505F09F
:20175000F5F9C0B258B184F801B008E0AA8841491020052305F0EAF9B8F1010F2AD1256ACC
:2017700045B32D6835B36078A84723E06879132820D12889012808D1607B022805D11C481B
:201790000EF02BFF0DF058FA14E036491020052205F0CCF981B216480CF02EFF0AE06888AA
:2017B000C00B07D3334852462B4900901346102005F0BCF9059808B10EF0C3FE2579E0781F
:2017D000790830D355EA00032DD0204600788DB9E179257A8DF808100B9A8DF8095013687E
:2017F0000DF10A052B609288AA8005E005160110B41000208DF80890617A8DF81010A17A50
:201810008DF811100DF00AFC1149024602AB102005F08CF938B1256A84F801B01DB12D680E
:201830000DB15846A847B80803D31349304609F079FEF808FFF4F2AD607B401E3FF4D6ADF4
:20185000401E7FF4EBAD0DF0F7F9E7E555D6000059440110C1170110E987000009450110C5
:20187000E191000011FE00006C1000200C1000201C100020E40F0020021000202DE9F04F19
:201890000F46CD4C0168E16241688068ADF11C0DE060C548A1608047C448E16A0160A168F0
:2018B000DFF810A34160E168DFF804938160CE49002FA346C1606FD03D68E8788DF80C0030
:2018D00028798DF80D0003A80FF0CAF9A86808B1C6490160E86808B1C5490160C54C2878F6
:2018F00020706878BE686070A878B268A0703178A2607368E1702E696360EA69266279683B
:20191000E2620868E06068696062A8697B68A062286A9E68206395F8240084F834001EB9E7
:2019300000200EF079F900E066617868C06818B900200EF071F900E0A0617868006918B904
:2019500000200EF069F900E0E0617868406818B900200EF061F900E0206128692062F86831
:2019700081680E6806B9D24ED0494FF001084E60C66881F8018036B900200EF04DF94D46FC
:201990002E68F86801E04D462E6000685446FB68A0615868E06107E000200EF03DF94D460A
:2019B0002E684FF001085446361DC749366804F1080350205246B04710B12868806880479F
:2019D000DBF808008047C24E002781463B46BF487770694660610422337038460DF044F9F7
:2019F0000098B0F5801F0CD020B90DF035FC06F0F3FD08E00CF0C0F90EF062FB0420708026
:201A100001E00DF029FC3846BA4EE0602B68B760986980477060AF4880F80080394641807C
:201A300014200EF02BFCFF211422A0620EF0DDFDE01CFF2102220EF0D8FD14200EF01EFCAE
:201A5000A54F38603868002114220EF0CEFD002000F052F940460CF08BFCA0480188FF292D
:201A700006D1022101807822001D00210EF0BDFD03200FF0F1F804200FF0EAF805200FF017
:201A9000E3F806200FF0DCF807200BF04FFA944E0820307006F124000FF0CEF80BF004FC72
:201AB00006F1360A05200A2152460DF0EFFF38B10020C0F10901401C0AF8011B0A28F8DBC9
:201AD0003078102107F06EFF2B68864909200DF10E025E68087001AB10200021B047A06AE4
:201AF000E1690A260A309DF80E20761E00F8012BF9D1891EE161DBF80C104846884704F1B3
:201B100020002B68626A059040461E69DFF8D88104F120034146B04710B1286880688047CE
:201B3000B8460DF0BDFC5FEA000903D008F0F6FD4FF0FF39002643E00298616910F8062C73
:201B5000A0F10C07032A03D1002939D0884737E0A16A9DF810C00A223046491E11F8013FF6
:201B70009C4506D0521E00F10100F7D14FF0FF0A01E05FFA80FA2868BAF1FF0F00F1080036
:201B90001CD038790CF0E0FDB979012904D0022904BF0299887001E00299087002995046E9
:201BB0000DF0BAFE0CE0C04641490010F8440020B81A0020D8180020FC1300200068804718
:201BD0002868C36904A902AA0DF10F0098470028B2D0D8F800007700C35B6BB9761CF6B287
:201BF0000A2EF8DB2BE0C046780C010061F10000E1FD0000A81700200A2E20DADBF8080018
:201C10008047D8F80010002231F807A0CA53DBF80C108847354850F8262066705146304652
:201C300090470646FF206070DBF808008047D8F800107A5A16437E52DBF80C1088470DF048
:201C50002FFC0746B9451AD007B9294FE069B84238BF071CDBF80800804781462868016A1B
:201C7000206A8847626A28681F49059B521C6262C6683846B047DBF80C1048468847E76827
:201C90002968A0681431AFB9D8F800000A270026835B33B10969A06888472968D8F800005B
:201CB00014317F1E06F10206F2D107E01C1A002053C00000096988472968143109684FF059
:201CD000FF3088472DE7C04671F6000059FE0000AC1A0020B01A0020A42500201C15002014
:201CF000540E0020B625002091E70000F81901008EC2F528542500202DE9F84FDFF8BC13C4
:201D1000DFF8BC23DFF8BC5308700821002010600D23DFF8B40340F2363201704380828058
:201D3000DFF8A8030560AC7EDFF8A4030470FF2CE97E417008BFFF292A7F82706B7FC370A6
:201D5000AE7F0671ED7F457115D1FF2A08BFFF2B11D1FF2E08BFFF2D0DD1DFF878130A78E9
:201D700002704B7843708A788270CB78C3700A79027149794171DFF860130278DFF85C831D
:201D9000DFF85C93DFF85C730A70FF2543784B7082788A70C378CB7002790A7140794871E1
:201DB00088F8005088F8015088F8025088F8035088F8045088F805500020CB490880D9F897
:201DD0003440CA49607808702278C9493A70A0780870A2681079C74A411E1170E078C6494B
:201DF000C64A0870E068106008B90DF015FF2069C34E306008B90DF00FFF3068DFF804A3B5
:201E100001688847326852F8041F50468847BE48BE49CAF82000CAF824106069BC490860F3
:201E300008B90DF0F9FEA069BA49086008B90DF0F3FEE069B849086008B90DF0EDFEDFF888
:201E5000DCB2B74C9BF804000EF018FA0028206075D09BF80500B34E0EF010FA00283060F4
:201E70006DD09BF80600DFF8C0A20EF007FA0028CAF8000063D09BF807000EF0FFF9AB49A3
:201E9000002808605BD039789BF80000891C484380B20EF0F3F9A649002888604FD0387819
:201EB000002862D0BBF80210484380B20EF0E6F9A04A0028506042D038780EF0DFF99E4918
:201ED000002808603BD0387840000EF0D7F99B490028086033D03878182148430EF0CEF9E9
:201EF000974A106058B3387840010EF0C7F99549086020B3387800010EF0C0F99249086003
:201F1000E8B1387800010EF0B9F990490860B0B13878302148430EF0B1F98D4A106070B179
:201F30008C483978007848430EF0A8F98A4A106028B138780EF0A2F98849086018B9BDE855
:201F5000F14F06F03DBD4FF0000B09E00EF066F90021418081600180022303710BF1010BCC
:201F700039785FFA8BF08842F0D32268694F0120107121680D732068457321688D73206801
:201F9000C57321680D7400212068457400202268D172A0222168487103212068C28001723B
:201FB0000720226850720021206881722821206801224182C2760020216848770022206801
:201FD00080F85E200121226811770120216881F85D0001223068027131680D7330684573B0
:201FF00031688D733068C57331680D7400213068457400203268D1720022316848713068D3
:2020100082724FF420703168C88008818A7401213368D974DAF800201573DAF800104D735B
:20203000DAF800209573DAF80010CD73DAF8002015740022DAF800104D740121DAF8003010
:20205000DA720023DAF800201171DAF800104B71DAF80010C88008818B720520DAF8002028
:202070009374DAF800103E4AC874106880473968054608688047396851F8042F002090472D
:20209000D9F80C101C4B0A881878364902430A802846354A136898470C2134480EF0C8FDB9
:2020B00040460EF0C1FD0EF0BBFDBDE8F44F034800784FF4005107F075BC00BF6E4F002015
:2020D000044F0020B63F0050604E0020084F00202C4E0020E81200503C4E0020344E0020C3
:2020F000E01C01007B4F00200C4F00206D4F00206B4F0020724F00206C4F0020F04E00209E
:20211000F44E00207C4B00208D020100AD020100F84E0020FC4E002054240020F81900208D
:20213000104F0020144F0020184F00201C4F002060250020684E0020004F00208C250020C0
:20215000804E0020844E0020884E00208C4E0020904E0020D61A00209025002094250020E3
:2021700004140020544F002008140020F84D00202DE9F84FC04CA178FF2904BF00200DF029
:202190004BFDA0780DF074FF044604F1680504F190062968086810B10021E1830CE0A87BD2
:2021B000002804BFA97E002906D13078002801BF207F0128608CE0832189E08B4118491C83
:2021D000618120460EF028FD01281EBFAB480178012904D121890020491CE08361814FF65A
:2021F000FF77A87E01280DD1AA8B618920890EF00FFD38B1218960894A1C93B298421BD06E
:20221000A88B0FE03078012816D17288618920890EF0FEFC80B1218960894A1C93B2984206
:202230000AD0708892B2904206D03818608180B20EF0EAFC3F18E78304F5967999F804002B
:2022500020B120890021401CE183608104F12E07A87E012811D12189A88B4B1C9BB298426C
:202270000BD160810EF0D0FC8046B988288C01FB0808204609F0C6FF01E0B7F80480B4F81C
:202290001EC022687E4ED2F80CE00CF1010000FB08F340F6C41000FB03F18E44C2F80CE0DF
:2022B0003668DFF8E0E13678BEF80080764AB609032E11D1D67BF60748BF4FF000080BD4E7
:2022D00008F101081FFA88F6012E12BF668AB9F8066006F2DC5600E0668A5E434FF4C87A2E
:2022F000B6FBFAF6761C6661AEF80080A3614FF0180894F806A084F820C008FB0AFADFF8DF
:202310008CC1DCF800E023680EF1080656F80AB0C3F810B094F806A008FB0AFACDF800A0F3
:20233000D3F80CB0D4F814A0ABEB0A0ADDF800B046F80BA094F806A008FB0AFA56F80A607D
:202350009E600EF10C06A37908FB03F30EF10C0EF65C06F0F00646F002060EF803604FF00C
:20237000000ADCF800E0A6790EF1020308FB06F623F806A0464BA6791B68760103F1140AF0
:20239000D4F814B05AF806A00AEB4B0A03F1140B4BF806A0AD7E022D0BD1A5796D0103F1A9
:2023B000140697F800B056F805A000FB0BAA46F805A0BD88D27BA779D60736D508FB07F793
:2023D0000EF10802D659A6F5A86A0EF1080646F807A0A77908FB07F7D2592768511A396136
:2023F000BA6003F11402A1794901575807F5F667575003F11401A27952018958C9F800106D
:202410006843244AA179156B03EB41162968401AA0F51670F0612049A07903EB40100B781A
:20243000012B14D10121C17214E003F114027F01D1592A464243A1F5E661A2F516729142BA
:20245000DED3082120460EF0DBFB012011E0916A4A78C272A179DCF8000008FB01F28118D8
:202470002268516007200D490870204609F012FC0020BDE8F28F00BF684E0020784F0020ED
:20249000084F0020AC2500205C4D0020804E0020844E0020E01C0100734F00206F4F00205E
:2024B0002DE9F84F0C46E00788B00BD50DF0C6FE28B100218160B348006800B1804784F073
:2024D00001005CE1A0070FD500210023069105910491039302910191009101223C200EF054
:2024F0008BFB84F002004AE11D256007A64EA74F40F18A80002107918B46A5488178FF293F
:2025100004BF00200DF088FB386890F8A0000DF0AFFD80463868C07A98F82691022818BFEF
:20253000032808F5907A06D106F10D000EF060FB08B906F1070B514648460EF055FB88B3AD
:202550003868807A002818BF012804D1314650460EF046FB04E05246494630460EF03CFBD2
:20257000FF2834D005FB00F906EB090506225146E81D0DF081FC16F80900396840F00209F7
:20259000E81D07900622887E00F0010088F8260105F1010A386800F1140108F590700DF028
:2025B0006BFC14E0514648460EF012FB78B15246494630460EF010FBFF2808D006F10D01AD
:2025D000454348190EF014FB08B949F0020908F12C004B460178069142891209059201228A
:2025F000B8F822100491C0880799029140080390CDF804B0CDF800A0002098F806100EF05C
:20261000FBFA84F00400BAE020060FD5002100230691059104910393029101910091012224
:202630003B200EF0E9FA84F08000A8E0E0044BD5F11D06F10D000EF0C7FA3868017A0129B8
:2026500018BF042931D1C17A02291EBF0329817E01292AD1817E00F1140230460EF0BCFAA1
:20267000FF2811D04543354405F10D000EF0C0FA50B9E91D05F10D000EF0A6FA386806220E
:20269000E91D14300DF0F8FB3868C07A022818BF03280AD106F10D000EF0AAFA28B93868E8
:2026B0000622F11D0C300DF0E7FB3A4842683A4800784FF480510BF081FB10B18E2009F0A0
:2026D00077F984F480505AE0A00505D50DF075FE324901200860FEE7600504D505F07BFF73
:2026F00084F480604BE0600405D5812009F060F984F4804043E0A10440D5294D286810B13A
:2027100000200DF089FA274E4FF0FF3028600EF057FA3168244D51F8202F684690472349BC
:20273000234B486A8A6A009001920293C86A0268086A0392ADF810000A6B1178002904BF7B
:202750005068002805D19068002804BFD068002806D02970506868609168A960D068E860FF
:2027700029463568134A2E6813486B46B0471349086004F0A3FA84F4005000E0002009B071
:20279000BDE8F08F204F0020AC450020104F0020684E0020784E00206E4F0020FC002043EE
:2027B000044F0020F04E002068450020A81700203D0201002C4D002058240020EC4E0020BD
:2027D0002DE9F04F09AFADF13C0D08900A92388809911E46ADF81800101C08BF002000F043
:2027F0007581017800274FF0010B401C4FF0FF39B846DA460A9061E1252940F0568101784D
:20281000401C0A902D2918BFADF8068004D10178ADF806B0401C0A9030291CBF4246434676
:2028300004D10178401C5A465B460A902A29CDF800804D4617D1049330680A9BCDF80890BF
:20285000C01C20F00300001D306050F8044C1978002C009403F101000A9018D5ADF806A01C
:202870006442009413E044460AE0600000EBC4004018A0F130040A9801780094401C0A90D6
:20289000302901DB3A29F0DBCDF8089004932E2929D10178401C2A290A9011D13168CDF87E
:2028B0000880C91C21F00301091D316051F8045C002D48BF454601782B46401C0A9011E096
:2028D000454643460AE0680000EBC5004018A0F130050A9801782B46401C0A90302901DBFD
:2028F0003A29F0DB02930AB1224604926C2904D04C2918BFADF8048004D10178ADF804A0D7
:20291000401C0A900BA8CDF80C800FAB07906429059300F0828069297FD0BDF818C0752939
:202930006DD0782969D06F2965D070294ED063293ED0732922D00A98401E0A900998012860
:202950001AD966490C68B5F1FF3F03D0A84288BF6D1C05D86FF00041814294BF0D1C099D7E
:20297000029508A80AA932466B46A04709993F18091A0398099165E0454617E03068C01CB1
:2029900020F00300001D306050F8040CBCF1010F014608B94FA0014607910DF09BFB039056
:2029B000B5F1FF3F4FD0A8424DD9039528464AE03068C01C20F00300001D306010F8040C78
:2029D0008DF82C005D46039558463CE0082035680490E81C20F00300001D306050F8041CBC
:2029F000082210230FA809F0EDFC401E079040210170079823E0082302E0102300E00A231B
:202A10003068C01C20F00300001D306050F8041CAA42BCBF2A1C04920DE03068C01C20F056
:202A30000300001D306050F8041CAA42BCBF2A1C04926FF009030FA809F0C4FC079005991B
:202A5000081A0390009C241ABDF8065000945DB906E008A8202109AA0CF040FC7F1C009C29
:202A7000641E0094F5D50398401EB0F1FF3F03900FD1BDF8060001281CD10098401E0090C4
:202A900018D408A8202109AA0CF028FC00987F1CF4E70798017809AA08A80CF01FFC079837
:202AB000401C079003987F1CDEE708A809AA0CF015FC7F1C0A980178401C0A9000297FF460
:202AD0009BAE089808B14146017038460FB0BDE8F08FC046286E756C6C2900C0C41C010038
:202AF000BB482DE9F84F0025BA4CB849056094F8E200002800F06581012800F02F81B64E9C
:202B100002283CD0032840F05C8151F8250CD4F8B8100029A0F5C060C4F8D400B8BF4942B9
:202B30000028B8BF4042814226DA4FF08057D7F8A4014568B4F8BC0030214FF47F42082382
:202B500000903046A847D7F8A4014568B4F8C00004214FF4F802122300903046A847D7F888
:202B7000A401B4F8D070456820214FF440620A2330460097A847012584F8D8501CE151F8A8
:202B9000258C0DF01AFC2F4600B901273946934F38680028FCD0B146012609F10409D9F820
:202BB0002CA03E6009B10DF00EFCCAF30720C4F8BC000DF002FCAA4600B9B2463B68002B14
:202BD000FCD0D9F800B0BAF1000F3E6001D00DF0FAFBCBF38440C4F8C0000DF0EEFBAA46A9
:202BF00000B9B2463B68002BFCD0D9F81C90BAF1000F3E6001D00DF0E6FBC9F38120C4F8DD
:202C1000D000B8F5C061C4F8B81000F09C8094F8D80068B9C4F8D410D4F8C000C4F8C80041
:202C3000D4F8BC70C4F8C470D4F8D030C4F8CC30D4F8D400D4F8BC30002854BF02226FF002
:202C5000010204F1C8010F6800EB40008018421000EB927207EBA2000860D4F8C810C4F8CC
:202C7000C43000291CDD1E293CDDD4F8CC0030B93429B4BF15391E21C4F8C81025E02A2904
:202C9000BABFD4F8C8000B381E20C4F8C800D4F8C4003F28B4BF401C3F20C4F8C4001FE06E
:202CB000D4F8CC00032812D011F10B0FC6BFD4F8C8000B30301CC4F8C800D4F8C400002867
:202CD000C4BF401E051CC4F8C450032508E011F1150FC6BFD4F8C8001530301CC4F8C800AE
:202CF000C4F8CC504FF08057D7F8A401B4F8C43030214FF47F424568374800930823A84794
:202D1000D7F8A40104214FF400321123456832480096A847B4F8C860D7F8A40104214FF405
:202D3000F802122345682C480096A847D7F8A40120214FF440620A23B4F8CC6045682648F4
:202D50000096A84701E084F8D85040F2FF50404502D8801C40452FD2082030E051F8251C95
:202D70001F4F4BF2F5204843060A3868C0F3814001280CD11B480068006880470BF062FA7D
:202D90000DF027FB3111C010484306EBE03694F8E50030B91448006820F07F4036187608A7
:202DB00001E084F8E5501148310C0660012741600F4D8760287808B90B2000E0052084F85C
:202DD000E40003F023FDBDE8F88FC0462D400C402C500C403C12002000A00C4000800C4013
:202DF000B43F0050EC010010102009403C600C40691B01002DE9F84FB34D696884B00191A9
:202E100021B905B0BDE8F04F0DF0D6BE0978DFF8BC82AF4EDFF8BC92DFF8BCA201291CBFAC
:202E30000229042946F2A81741F64C5B05D0402918BF802900F096803CE10DF0FBFA00285A
:202E5000FAD00198007805F079F80090446814B900200CF0E1FE9AF8010000285CD000F046
:202E700043F90DF005F902900168009801914F6809F0EEFB022825D000990A78012ADBD13C
:202E900096490A68137A19F80310317018B90DF08FFE5844A0602069C17E01F0EF01C176A8
:202EB0002069C17E41F08001C1762069C17E01F0F00141F00201C1762269B9688848411867
:202ED000D1614BE001980178802911D10820854930700A78012A03D09AF80100022801DB39
:202EF00038690CE0D8F828003A690178D1720DE07C49072030700A783869012A02D1012122
:202F1000C17203E0D8F828104A78C2720298817901988AF80210C8E0009800288CD001996E
:202F3000009A0078914205D101281CBF00200CF073FE15E0012840F0BD80684801680A7A0D
:202F500019F8020030700DF033FE3918A0680DF02BFE18B90DF02CFE5844A0600120A87034
:202F70000098A2E09AF8010000287AD000F0BCF80DF07EF804462068029047689AF8020064
:202F90000DF076F803900DF05BFA10F0070F3DD0A87804F0D3FF01904168019800910299C9
:202FB00009F056FB022831D001990A78012A2AD14A490A68137A19F80310317028B90DF015
:202FD000F7FD83440098C0F808B000980069C17E01F0EF01C17600980069C17E41F08001D4
:202FF000C17600980069C17E01F0F00141F00201C176009AB9683A4841181069C1610121AA
:203010000198A97051E000200CF006FE0398A04225D0029833490278802A12D10820307046
:203030000978012903D09AF80100022803DB38690121C17210E0D8F828003A690178D1722A
:203050000AE0072030700978386901290EBF0122D8F828104A78C272A0798AF8020002983E
:2030700023E00DF0EDF910F0070F29D0A87804F065FF04462078D4F80480012820D1174927
:203090000868027A19F8021031700DF091FD3918D8F808000DF088FD20B90DF089FD584442
:2030B000C8F808000120A870204605B0BDE8F04F06F036BD05B0BDE8F04F00200CF0ACBDF9
:2030D00005B0BDE8F08F00BF60250020E01C01006F4F0020289A0110684E0020104F0020A0
:2030F000F0D8FFFF734F00202DE9FE4FB24C617811B900200CF090FD0DF05AFD4FF00008D0
:20311000074607F6C417C246AC4DDFF8B49228E050460CF0ADFF06467079F0B12968B07986
:2031300001F80800394608F101005FFA80F830460DF036FD30680178402902BF06F18200DA
:203150000178012902BF41887289914205D1B169C088411830460BF0DDF90AF101005FFA37
:2031700080FA99F800008245D2DB6178884505D000200CF051FD82200DF00EFD6078012830
:2031900040F0F180002701E07F1CFFB299F80000874280F2E28038460CF06AFF06467079E4
:2031B0000028F1D02968B0790A7890421CBF00200CF032FDB079FDE0286810F809000CF03F
:2031D00057FF00684268DAF808109068814204BF3E4609F1010900F0D480D6E0286890F875
:2031F00000B001224FF4C0710FE0636803F5AD76835C01FB03F901FB0BFE36F809C036F8A2
:203210000E60B44538BF9B46521CFBB29A42ECDB4FF6FF700DF0BCFC064658460CF028FF2B
:2032300068490068D0F804A00868D94630F8192060684FF4C07300F10E0103FB09F3C85AAF
:20325000B2EBD00F52D2720840F6C4104243009200275D4A0190029217E058460CF008FF98
:2032700001680A78802A03D1DAF81030009A5A610978402908D1029980790A6802EB401167
:20329000009800F5A060C8617F1C47452EDA2868C05D8345F8D001464FF4C07359436368D8
:2032B0005A1803F5AD73D289595A53088B4202D2521A9045E8DA0CF0DBFE01684A68019BDB
:2032D0009168DAF808207008A1F6C41103FB00200DF06AFC0028C0D03A48006830F8191093
:2032F000491C20F81910286810F807B0296808780CF0BEFE0026006847684FF4C0794645BC
:2033100051DA2868805D0CF0B3FE0068296842688B5D606809FB03F3034403F182010878CD
:2033300030B15889B1F802C0401C80B2604508DA887B01280ED15889098A401C80B2884264
:2033500008DB6EB3B968906801F5C241A8310DF02BFC28B3761CF6B2D1E700200CF05CFC09
:2033700082200DF019FC617828680DF00DFC286800780CF07DFE00260068D0F804A04FF062
:203390000109771CC145FFF617AFF6B2002E1CBFF8B200287FF422AF286890F800B037E712
:2033B000296811F806B007490A6800205B4622F813005846BDE8FE8F684E0020004F0020E8
:2033D0007B4F00208C250020844E00202DE9F84FDFF8B8A20F460446F80B80F00B81A64E10
:2033F000DFF88882B80F80F0BC80B80880F0B0803809C0F0318108200DF004F8002840F0ED
:20341000A28080200CF0FEFF002840F09C80684607F024FA012803D10098002800F09380EA
:2034300091480078002840F08E8000250124E8B20CF014FE48B1837A3BB1847290F9090069
:2034500004FA00F0C0B20BF08DFA6D1C032DEED345464FF0030905F1AC0085F810900DF06E
:2034700098F88348002301680360824950F8082C98461A4640F8088C05F134000DF095F8ED
:203490003068006B8047A968401A010BA869C1F1FF3282422CBF08444FF0FF30A861287FCE
:2034B00020B1E868A969B1EBC02F1ED90CF094F9414600B12146081C14D0704840F609011F
:2034D000018041464180427B64F303024273027B61F30302027341600CF088FE418811F409
:2034F000406FFBD02C774146A9616548016821F0020141F400710160624941F8049C41F226
:2035100030028A600C6050268E600C604FF4CA628A600C6041F80C4C4446046002200BF0E2
:2035300007FA112006F09EFA287818B9686838300DF047F8687F18B16C7705200BF0F8F932
:20355000514868612C7409F04DFB27F0080783E005F0BEF945467435286808B927F002073E
:203570007AE00DF01CF8B3468146DBF85400016804208847D8B1207CC8B145460835286897
:20359000A8B10646DBF80000E568006B8047801BE060000BE060A84202D240194008E0605F
:2035B00040F6C41181422CBFB0F5FA7FE1604846FDF718FD0BF004F890B1A56920466FF43D
:2035D000807100224FF00073A847464606F16C052868002808BF47F0020701D009F002FBAD
:2035F0002046646900214FF080630A46A04727F0005731E00CF0D3FF51460E6846B306F1C4
:20361000280106C90A234FF0E0450B40154008BF002B1DD106F1280191E8300006F12803A6
:2036300093E8060006F12803AA43A14383E80600FDF7D8FCB16869B1002D08BF002C09D0A1
:2036500030692246B6F93C10B4682B46A04701E0FDF7C8FC27F4804727B150463946503002
:203670000CF0B7FFBDE8F88F791C0020E01A002014100440E1CE00008C0100101C25002078
:20369000000004600C41044035980000601B00202DE9F04FDFF8A0B2804609AFFF200E464E
:2036B0001C460025ADF1240D97F8049007903F8830780592022805D17068008842F6021139
:2036D000814273D0304609F06DFF5EA3069018B3401E0ED028460090019040F226210290C1
:2036F0000322039050A304904BA006F0DDFD0A208FE065A00090CDF8048040F2212102943F
:203710000122039744A0CDF8109006F0CDFD5946142001F1040911E05DA00090CDF804803A
:2037300040F213210294012203973BA0CDF8109006F0BAFD5946282001F10209B84214DD04
:2037500007EB040A50450ADBF06805992246C01907F020F9A9F800A00698079013E02846C1
:2037700040F231214CA30D2504E028464FF40B7152A3072500900190029003900322049063
:2037900025A006F091FD0798FF280DD0DBF8080050B1066846B1E419A0B20090069A059BCD
:2037B00041F230114046B047284632E0B9F1FE0F0CBF0FF22C190FF24419304609F0F2FE03
:2037D00000904FF4FC71CDF804800122CDF808904DA3039510A0049506F066FD0097059A70
:2037F00040462346314609F03DF9594608310F68051C0DD167B1786850B1304609F0D2FE9E
:2038100000947C68059B024641F230114046A047E8B209B0BDE8F08F646174615F7365729D
:20383000766963652E6300C041747472696275746520776173206E6F7420666F756E642E86
:2038500000C046C05772697465417474724342203A20257320636F6E6E48616E646C652813
:20387000256429206C656E28256429206F666673657428256429206D6574686F642830785B
:20389000253032782900C04653747265616D00C0537472696E6700C0496E76616C696420A0
:2038B00076616C7565206C656E677468207761732072656365697665642E00C0416E206941
:2038D0006E76616C6964206F666673657420776173207265717565737465642E00C046C062
:2038F0002D20726573746F72696E6720626F6E64656420737461746500C046C02D204F540B
:2039100041207772697465005772697465417474724342202843434344293A207061726164
:203930006D3A20256420636F6E6E48616E646C653A20256420257300501300202DE9FC419C
:20395000A0F2013714468846022F40F232819B4E9C493F1F0F2F04D9143F4CD0BF1E1CD0D0
:2039700011E0DFE817F0CF00C9000D01FA00C100B9002601AF00A700100010009D008F0095
:203990007F00740066002D2880F21381B8F1020F40F00F818849238807E1B8F1010F40F09C
:2039B0000881F078012800F00481324620781179107189B9002800F0FC805078012800F096
:2039D000B580042800F0B280062800F0AF80052800F0AC80BDE8FC812078002840F0E98043
:2039F0005078032800F0AF80072800F0AC80052840F0DF80A7E0B8F1010F40F0DA8020783C
:203A1000012840F0D68006F1EC000CF0FFFB002840F0CF803446002004F13A0107F082FD27
:203A3000002840F0C68004F1C8000CF0D6FDBDE8FC81B8F1020F40F0BC8020880A28C0F278
:203A5000B880B0F5486F00F3B4808E1C17E0B8F1020F40F0AE802088B0F5FA7F80F2A98081
:203A70000E460CE0B8F1020F40F0A38020880628C0F29F80B0F5486F00F39B803E363080B4
:203A9000BDE8FC81B8F1020F40F0938020880628C0F28F80B0F5486F00F38B803C36EEE7BF
:203AB000B8F1010F40F085802078062880F28180454E0EE0B8F1010F7BD12078042878DA33
:203AD0000A3606E0B8F1010F73D12078082870DA09363070BDE8FC81B8F1010F69D1207815
:203AF000042866DA0836F4E7B8F1010F61D1207804285EDCF61DECE7B8F1020F59D12088D6
:203B10000E36BCE7B8F1010F53D13079012850D032462078D178D07069B9002849D050781B
:203B3000012803D0042818BF052842D101200CF09DFBBDE8FC81207800283AD150780228A2
:203B500018BF052835D110780BF068FA1C490246102002F0EBFFBDE8FC8106F183050021EB
:203B70001F22284608F020F842462146284606F011FF44463078B4710BF050FA002311E063
:203B900006F1640500211F22284608F00DF842462146284606F0FEFE4446307874710BF087
:203BB0003DFA01230094094901950246102002F0BDFFBDE8FC81C046ADEA0000C80F002042
:203BD000994501100810002002100020094501102DE9FC418E488F4A04788F488F4B904915
:203BF0000D2C6FD8DFE814F012010E000E000E000E000A010A018E000A01C900C900E700F7
:203C1000E700EE00106041F204478648864DB0F802C08649BC451FBFB0F81AE0BE45B0F8CB
:203C30003280B8454FF4A0561ED181480068D0F800C09CF8040003280CF1080E0BD1DEF85C
:203C50000E0000281CBFBEF81800002803D01F80784911608AE0022C1CBF1E800D461560D0
:203C700000208CF8040081E0BCF1000FA3F800C041D0BCF1010743D0B7F1010C3BD040F249
:203C9000FE37BCEB07071ED0A7F1040CBCF1010F20D94FF47F77BCEB070C1DD04FF4406714
:203CB000BCEB07070FD0BF1E012F0CD93F1F0AD07B1E012B0ED940F2F937DB1B012B1AD913
:203CD0001B1F09D09AE0022C01D115604EE01E800D46FAE7584DF8E7584B1C68257A012D5A
:203CF00005D141F20243438043834386F0E7468046834686ECE700200BF08EFF832081E063
:203D10008F207FE04E498978FF290CD0106018204C4C41432068851C40F204466C5A1C801E
:203D3000A41B012C484B71D94FF47F76A41B0FD04FF44066A41B032C84BF641F012C0BD926
:203D5000A41E012C62D940F2FD36A41B08D103E0801C41F201444452136005F007F805E053
:203D700000200BF059FF85200CF016FFBDE8FC4136480078012105F015BE40F20442488800
:203D9000188090421CBF41F2084290423ED041F60402904211D12E4C2E482F4B0068002589
:203DB000CDE9004502222D4C256855F8086FB0472B4908802AE04888188000200BF02CFF5F
:203DD00085201FE04888188002280DD940F20442801A1BD040F6FC72801A05D0083815D082
:203DF0004FF47F72801AE8D1887B801CC2B2B52AA8BF662088730020488007E000200BF068
:203E10000BFF8420BDE8F6410CF0C6BEBDE8F3816F4F0020204F002077050100504F0020C6
:203E3000CC4C0020204A0020B1540110615A0110F44B002059550110755B0110104F002050
:203E5000684E0020804E0020313901106E4F002002000080EC4E002045EA0000F04E0020CD
:203E7000424F00202DE9F04F8246DAF80070DAF804600C465FEA0208ADF11C0D14BF00218C
:203E90004FF0FF31DFF8409248460CF054F9002818BF0B2040F0158100258F488C490570ED
:203EB0008A48FC6052460CF080FB317B27200CF07EFBB8F1010F07D0657002200AF034FF99
:203ED00006200AF031FF01E0012060702078012840F2AA80801E012868D9801E012833D9B8
:203EF000801E012800F2DE800CF059FB83464FF0805000F5EE77D0F8DC01A378466A009316
:203F100021782846062908BF0120019001200290A068228AE1686368B04781465846FDF717
:203F300061F8B9F1000F40F0BF80B8F1000F02D00BF072FF02E050460AF0CAFD002800F0A9
:203F5000A3803868806A2AE00CF029FB83464FF0805000F5EE77D0F8DC010123066800937E
:203F7000A168A27860682478AC46042C08BF9C466346B04781465846FDF734F8B9F1000F01
:203F900040F09280B8F1000F02D00BF045FF02E050460AF09DFD002876D03868406880477D
:203FB0004C49C1F8B0510D6081467DE00CF0F7FA83464FF0805000F5EE77D0F8DC01E38AE0
:203FD00086690093E0680190208B0290A0780390207D04900121059122782846022A08BFAA
:203FF000081CE1786268A368B04781465846FCF7F9FFB9F1000F57D1B8F1000F02D00BF0B2
:204010000BFF02E050460AF063FD00283CD03868006A80475FEA000946D1E078A168E28A79
:20403000236907F0C3FABFE70CF0B9FA83464FF0805000F5EE76D0F8DC01E38AC7680093D6
:20405000E0680190208B0290A0780390207D2946049001200590257805B90146084662687F
:20407000A368E178B84781465846FCF7BBFFB9F1000F19D1B8F1000F02D00BF0CDFE02E0E6
:2040900050460AF025FD08B914201AE03068406980475FEA000907D1306802692169E07858
:2040B000904781E74FF0FF39B8F1010F05D002200AF03EFC06200AF03BFC03480CF081FA3D
:2040D000484607B0BDE8F08F68160020A016002071F3000050450240B4250020F0B50746CD
:2040F0000020ADF11C0D0E46044664A500900322019464A30294DA2103942846049406F0AD
:20411000D3F864A3B81E09D0801E00F09E80401E7DD0401E5DD0401E3CD01BE0012E0CD0BC
:204130000094019428460294ED2103940322049406F0BAF8EE215AA393E000940194284622
:204150000294E82103940322049406F0ADF8E92158A386E0009401942846029440F20511E1
:2041700003940322049406F09FF80094204601904FF4837102900322039054A30490284649
:2041900006F092F801208DF817009DF817000028FBD170E00094019428460294FF210394FE
:2041B0000322049406F080F80094204601904FF480710290032203904AA30490284606F0D6
:2041D00073F801208DF816009DF816000028FBD151E00094019428460294F92103940322D5
:2041F000049406F061F8009420460190FA2102900322039040A30490284606F055F801208F
:204210008DF815009DF815000028FBD133E00094019428460294F32103940322049406F0B8
:2042300043F8009420460190F42102900322039036A30490284606F037F801208DF814008F
:204250009DF814000028FBD115E00094019428460294E02103940322049406F025F8E12125
:204270002EA30094204601900290039003220490284606F019F807B0F0BDC0466D61696E70
:204290002E6300C03E3E3E535441434B20415353455254002A2A2A4552524F522A2A2A0015
:2042B0003E3E20494E5445524E414C204552524F522100C03E3E20494E5445524E414C2051
:2042D0004657204552524F522100C0463E3E2044454641554C54205350494E4C4F434B211B
:2042F00000C046C03E3E2057524F4E47204150492043414C4C2100C03E3E204943414C4CA7
:204310002054494D454F55542100C0463E3E204943414C4C2041424F525421003E3E204F7A
:204330005554204F46204D454D4F5259210070472DE9F04385B011F8017B0446082F04F1C5
:20435000FD0004F1FC0804F1760504F5A076844A844BDFF8149213D0092F21D00F2F2FD075
:20437000112F01BF287801286878102840F0D5800A78327648787076012184F83D11EBE040
:204390000025521C4E5D5F5D3E434E55575D3E4046556D1C082DF5DB204608F023F974E0C6
:2043B0000024571C0D5D1E5D35430D553A5D15400555641C082CF5DB022088F80000CBE080
:2043D00098F80100820704D410F0110F57D01A2266E008784A7800EB02203080CA788878D1
:2043F00000EB022070804A79087900EB0220B080CA79887900EB0220F080087A30724A7A86
:20441000887A02EB00227281C87A0A7B00EB0220B0818A7B487B00EB0220F0810A7CC87B74
:2044300000EB022030828A7C487C00EB022070820A7DC87C00EB0220B082487D897D00EB24
:204450000120F082494801788A0658BF1A2212D504F5A670049071890391307A02902189CE
:204470000191F0880090B38872883188204607F0AFFDE0B11E2298F80100410710D40F20DE
:2044900088F8150020460CF07BFB002864D199F8000005B0BDE8F0434FF4804105F082BAEF
:2044B000204605B0BDE8F0430F210CF065BB7088A882B188E9820221F088288329740020E4
:2044D0006882A18EA88AC91DE981618EB0EB510F02BFE88AA18E884202BF288BE18EB0EB9D
:2044F000111F18D02878012804BF68780F2805D0687918B10F21A972FE2127E0FC2120467E
:204510000CF036FBF0880090B38872883188A0790CF02AFB20E0102118E0491E20460CF03C
:204530001FFB032F18D1A878042818BF0D2813D16E78142E18BF0E2E0ED12F7820460CF0D7
:204550000BFB012F06BFAE72FD213146204605B0BDE8F0430CF00CBB05B0BDE8F08300BF59
:20457000EC4D00207C2500206E4F0020144E002010B50B7884074CBF43F0020303F0FD03A9
:2045900004064CBF43F0800303F07F0304074CBF43F0080303F0F70384064CBF43F020039F
:2045B00003F0DF0310F0AA0F0B7003D0107840F00C0003E018B9107800F0F300107010BDDF
:2045D0002DE9F8430D4600272878022814461E4667D1696808784978DDF8208000EB0120AD
:2045F00080B25FEA08021CBFB0F5285F0B205BD14FF42851401A08D0401E21D0401E2FD02E
:20461000401E25D0401E31D04BE0DDF82490E8680BF0EDFF80B2A0EB08024A45BCBFA0EB91
:2046300008001FFA80F909EB0800162806DAA6F800904A46E86800EB08010DE00D2732E081
:20465000E8680088022131802070000A60702AE0062030800622E96820460BF00DFC22E06F
:2046700001203080E9680A7822701CE0E868B0B1082131800288227003881B0A6370418805
:20469000A1704288120AE270818821718288120A6271C188A171C088000AE07103E030809C
:2046B00001E0378001273846BDE8F2832DE9F0470F46814638780024022890461D466DD1B4
:2046D0007868089E01784078DFF8D8A001EB002189B24FF42852891A06D0491E29D0491E7F
:2046F0004ED0491E39D059E0F8680BF080FF80B2B04204D3A919162903DB0D244FE00724A4
:204710004DE0FB682A46414698190BF0B5FBAD19F868ADB2C5F11602002140190BF065FF7A
:20473000DAF8000000281CBF0268002A37D0002123E08EBB022DE0D198F8000098F801107B
:20475000FA6800EB01201080DAF8000000281CBF0268002A23D001210FE0EEB9062DCCD167
:20477000F868062241460BF087FBDAF8000000281CBF0268002A12D00321484690470EE0DB
:2047900056B9012DB9D198F80000002813BF0128F9680870802402E00B2400E00124204696
:2047B000BDE8F0879C2500207CB5894D144602460026A2F58062182A1AD8DFE812F0FE00A9
:2047D000F800F100E900E200DC00D500D0001900C500BE00B700AE00A3001900190080003E
:2047F0006F00680054004C00420039002C0024002D2880F28580022940F0828021880AF09B
:204810004DF90646E1E0012940F0DE80002C00F0DB801135A6E0102940F0D680002C00F05F
:20483000D38028465030102221460BF025FBCCE0012940F0C980002C00F0C68029468D1DA9
:2048500090E0262940F0C080002C00F0BD8005F160002622E8E7012940F0B680002C00F0A7
:20487000B3806D1D7EE0602900D13CB9012940F0AB80002C00F0A8800D3573E005F18600E4
:20489000214660220BF0F8FA012068739DE0012940F09A8020780CF05BF996E0012940F08D
:2048B00093802078022800F38F800C3528702078022814BF301C01200CF046F985E0072966
:2048D00040F08280611C684606220BF0CFF920786946324605F044FC04460A2C10DA0CF026
:2048F0002FF938B9204603F04FFC0AF0EDFD08F0DBFC6AE02A46012002F12C05285564E078
:20491000022662E001295FD1A87B21780028A9735BD12078012858D1E9E7012954D12478F2
:20493000072C51DB102C4FDC0B3537E001294BD124780A2C48DA093530E0012944D12478E7
:20495000022C41DA083529E000293DD10CF0F8F810B90BF025FBC8E701240F351EE0012971
:2049700032D10A35247819E001292DD12478022C2ADAED1D12E0102926D12B4603F1400089
:2049900051E7012920D12478022C1DDA2D1D05E0012919D12478042C16DCED1C2C7014E059
:2049B000012911D12478022C0EDAAD1CF6E702290AD120881435288007E0012904D1247862
:2049D000022CD8BF6D1CE9DD182630467CBDC046540E00202DE9FE4F05467B480024006841
:2049F0000094C00905D37948007810B920200AF089F8012D40F0E280DFF80092D9F8DC00DF
:204A1000012840F0D8800220C9F8DC000BF0A4F901200AF077F85FEA000805D00120C9F8EC
:204A3000DC000BF0A5F9CBE00BF0CFFDA34602906748684DC0F800B0A86A016801208847CD
:204A5000012804D1584607F039FE012000906248624FC0F800B0386811200BF0CDFC00B1C2
:204A7000012410200BF0C8FC08B144F002040F200BF0C2FC08B144F004040B200BF0BCFC64
:204A900020B12868564E016B308888470A200BF0B3FC20B12868534E016B308888475248AB
:204AB000012606602868816944F0200088474F4806600BF09BFC00F001010191400814D27B
:204AD000286A81684A4888478246BAF1040FF7D0BAF1010F04D1286A426845480321904749
:204AF0004449086820F003000860584600F088F82B683868986B8047019801280CD0BAF1DA
:204B1000010F04D1286A42683948314690473949086840F0030008602F48066028684169F1
:204B3000204688470B200BF067FC20B128682C4BC16A188888470A200BF05EFC20B1286855
:204B5000284BC16A18888847274806600322C9F8DC20264BC3F800B02868416B2046884734
:204B70000128F9D13868042009F0CCFF0446184806603868144800688009FBD3009801281E
:204B900002D1304607F09AFD0BF01DFC082009F0B9FF07460298C9F8DC600BF0CDFF164838
:204BB000008807F0BFFA0BF0E3F857EA040018BF4FF0FF3804E06FF0040801E06FF00108AD
:204BD0004046BDE8FE8FC04614100940241300200C400940B8010010000222432C200940E9
:204BF000221701001E17010028200860800104430040034024220840641B01003C120020BE
:204C10002DE9F84FDFF804B20746ABF13500DFF8F0810068800880F0E280754800680068E5
:204C300080477E490831D1F8009000254FEA29715FEA995201F101010AD2C0F13E0210F156
:204C50000A0F4FEAE202D8BF08229142B8BF111C684BD3F87C21C2F30462162AA8BF203A9F
:204C70001B68C3F30443162BA8BF203B9A465218162A05DA12F10A0FB8BF6FF0090200E05B
:204C900015225D4B5D4E02F01F0141F4F8511980316811F0030F18BF0125C90828BF45F0BB
:204CB00002050FB145F00405434693F90710411A052904DA9979A94208BF99886FD0DFF851
:204CD00044E10F28A0F10F0829DB08EB0011A1F1F0084FEA28210091072984BF07210091EF
:204CF000062988BF06215EF821600424774604EB81043C594FEA950CA41BEE0804F0FF01BF
:204D100024BFC4F3072631446F08AE0824BFC4F3074631446E0828BF01EB146104E00021FB
:204D30004FEA950C6F080091009C5EF824E05FEA5C060EF0FF0424BFCEF3072634447E0810
:204D500024BFCEF3074634446E0828BF04EB1E64009E89B2A8EB06267143803104EB1124EB
:204D7000AAEB02010029D8BF0121342209F0FF074A4391B24FF6FF727943B1FBF4F18A42B5
:204D900038BF111C802889B205DA10F1800FB8BF6FF07F0000E07F209980D8719D711A48E7
:204DB00000681F2918604FF0000008D340F2FF128A4206D24908401C8A42FBD301E01F2152
:204DD0009980134F0F39090940EAC10047EA0001CBF8FB1F0026CBF8FF6FBDE8F88F0D491B
:204DF0000D4F434608200F609B1D1870BDE8F88FEC0100103C1100506E620840242208407B
:204E1000842500209C130050082009403500094000E7A48030100940FDFDA400AC3F00505E
:204E30002DE9F04F804C0546E06893460F462E1CADF1140D16D0761E06D00095002040F240
:204E5000311139A305465BE00646002047A240F22D1104F1040804F1100914254FF0010A47
:204E700084460AE0002043A24FF4917104F1020804F1240928258446E24600920197034651
:204E900002900122CDF80CC023A0049330A305F00BFABD422FDB3A464846594605F07AFD73
:204EB000BAF1000FA8F8007032D0B078002808BF32A103D001280CBF37A13DA130880027D0
:204ED00000903D46012201913EA3029740F24111039511A0049505F0E7F906200090534FED
:204EF000207804F14C0349462A4601903046029705F08AF80CE0009700204FF4A5713CA3D5
:204F10000190029503900322049003A005F0CCF905B0BDE8F08FC046646174615F7365728E
:204F3000766963652E6300C0536574506172616D657465723A20506172616D657465722081
:204F5000232564206E6F742076616C69642E00C0536574506172616D65746572203A20259A
:204F700073206C656E3A20256400C04653747265616D00C0537472696E6700C01B5B333327
:204F90006D4E6F74692F696E642064697361626C65641B5B306D00C04E6F74696669636138
:204FB00074696F6E20656E61626C656400C046C0496E6469636174696F6E20656E61626C52
:204FD000656400C0547279696E6720746F2073656E64206E6F74692F696E643A20636F6E10
:204FF0006E48616E646C652025782C20257300C04C656E677468206F757473696465206285
:205010006F756E64733A204C656E3A202564204D696E4C656E3A202564204D61784C656E50
:205030003A2025642E00C04650130020457100002DE9F0410446804DA178A869ADF1180DC5
:20505000891F00F0F280C91E00F0DD80491E5FD0491E48D0C91E3CD0481E40F0E980287A59
:20507000697AB8B96878002831D0A0880BF060FD071C00F0DD80A07A40080FD3787968B185
:20509000E168890A0AD2B91D01AA05F069F80A2804D10321A0880BF047FDC9E0287B022869
:2050B00002D1A07A0009F4D3A088797904F1080201F074FCA869002800F0BA804368002B70
:2050D00000F0B68000210A46A0889847B0E00521E0E7002800F0AC804368002B00F0A88073
:2050F00062780221F0E70BF0B1F8002800F0A080A86950B1076847B1206900906189227BD7
:20511000637BE01C3C46A04792E060890121C2E767784FF00008002F66D1A179490863D3E9
:20513000EF69002F60D101A841460E220BF05DFAA0880BF0FDFC071C7AD0606940B97879B9
:20515000B91D06228DF80A0001A80AF095FE19E06669307C062206F111018DF80A0001A89F
:205170000AF08AFE07F10C00B91D06220AF084FEB81D062206F111010AF07EFE307C40F0C7
:2051900002007871A079C00839BF387900F0FD00387940F002003871A079000939BF387946
:2051B00000F0DF00387940F020003871A1799DF81120C1F3800010438DF81100080905D380
:2051D0009DF8110040F008008DF8110001A8214600F026FD28B92878022104F0E3FB40462C
:2051F00027E0A8694FF0150810B3436803B3A088627801219847B8F1000F19D0A8694368A7
:205210000321424660E7E078211D002204F0A8FF0A280DDA410001EB800004F10C0225301A
:205230000421C0B203F0D8FA02E0A08808F00AFA012006B0BDE8F081540E00202DE9F04F38
:20525000044672488E46016894461F46BEF1000FADF13C0D4DD0BCF1000F4AD09EF8002070
:2052700001209040014244D0BCF80000B0F5C15F32D1DCF81400DCF81860654BDCF81C5036
:20529000DFF890A10B904FF003080DF128090C9618680D95C0F3036B59F8046FCEB1002199
:2052B000351F05200B4655F8042FB2F1FF3F10D0924506D0401E01F1040103F10103F2D116
:2052D00007E0052B05DA705820F4702040EA0B407050B8F10108DFD1C4F804E0C4F808C0A1
:2052F0000BF05DF94C4D8046287820B14046FBF779FE002087E002F0F7FC4849086840F0F1
:205310000200086007A80AF079FF002605F1D00007AA4349099608F0D1FF424905F58270EB
:2053300007AA08F0CBFF07A80AF038FFFF20192107AB3D4A089005F1340008F027FF3B4A13
:2053500005F150001A2107AB08F020FF3849324605F18800134608F0FDF83649324605F149
:20537000AC00134608F0F6F8334A05F12000042133460AF01DF80E2004F08AFC05F17400E0
:205390000AF03AFE05F16C000AF036FE2E740523EB60072085F898012E77AE616E772849DF
:2053B000AE60264A69612B781670581C28704046FBF718FEB1461FB968460AF031FE6F4677
:2053D00038682060388A6082012060747B6813B940F6C4130646E3601A48A06126746061FB
:2053F000F86800B1A061B86800B160614946582204F1200006F0D8FB04F13800494609F05D
:2054100091FE6C6020460FB0BDE8F08FD4210840541300500200F844E01A00200020094023
:20543000B1FD000055940000E1CE000071C80000C9F7000081FB000081D80000AE25002055
:2054500035980000279000002DE9F0477C4C2369E5680F4691460FF2D40A011CADF1180DDF
:2054700011D0491E07D000220746154640F2471133A328464DE043A040F24311A61D04F117
:2054900002081D4605E041A04FF49C71261D04F1010800900197002002900122039032A3D3
:2054B0000490504604F000FF022F2CDA5FB33A464046494605F06EFA3780A878002808BFBE
:2054D00034A103D001280CBF39A13FA12888002700903E460122019140A3029740F25711B0
:2054F00003965046049604F0DFFE07200090554F207804F11403414632460190284602976C
:2055100004F082FD0FE0012200204FF4B0713EA315460097019204460295032203905046DD
:20553000049404F0C1FE06B0BDE8F087627574746F6E5F736572766963652E6300C046C0FB
:20555000536574506172616D657465723A20506172616D6574657220232564206E6F742016
:2055700076616C69642E00C0536574506172616D65746572203A202573206C656E3A202560
:205590006400C046425554544F4E3100425554544F4E30001B5B33336D4E6F74692F696E8F
:2055B000642064697361626C65641B5B306D00C04E6F74696669636174696F6E20656E6111
:2055D000626C656400C046C0496E6469636174696F6E20656E61626C656400C05472796909
:2055F0006E6720746F2073656E64206E6F74692F696E643A20636F6E6E48616E646C652041
:2056100025782C20257300C04C656E677468206F75747369646520626F756E64733A204C69
:20563000656E3A202564204D696E4C656E3A202564204D61784C656E3A2025642E00C046E2
:2056500098140020E56F00002DE9FE4F0E468246307AC10693461F464FF000090CD5584625
:205670000BF05EFA030000F0E8800A223146504698475FEA00094DD130780C9D0D9CDDF815
:20569000388002281AD170680178407801EB002189B24FF42052891A012910D9891E3AD0C0
:2056B000491E14D0FD397AD0491E00F08180491E6DD0491E73D0491E00F09580ABE0002C46
:2056D0002AD1F068017829800278416887E0002C22D101202880F1680A783A700021708934
:2056F000401C80B20BF018FA298860B10278921C51182980418979704289120ABA70416896
:205710000278F81C6CE0091D298004220021781C0AF06BFF93E0002C66D1F06806880421B0
:2057300029803E70320A7A700DF1020130460BF0F3F9040021D0D4F80C80BDF802204FF615
:20575000FF766B4631460BF0E3F940B9237862683C4802210BF0D8F908B9ADF8006098F89E
:20577000000002280BD1D8F804100222381D0AF083FB2888801C288001E0ADF80060BDF8AF
:205790000000B870BDF80010090AF97057E0002C2AD1F068016850460AF0F0FC02E01CBB3C
:2057B000F0680088022129803870000A787046E0F0680AF01CFF80B2A042B8BF4FF0070926
:2057D0003DDB844208BF002205D008EB04028242B4BF4246021B2A8092B2F068011938466A
:2057F0000AF04AFB2BE014B14FF00B0927E0F0680721298002783A7043787B704188B9704B
:205810004288120AFA7001793971C2887A71C088000AB87113E058460BF072F95FEA00090B
:205830000BD00F980290CDF8048000942B463A4631465046C847814601E04FF00E094846CE
:20585000BDE8FE8F2E1901002DE9F04F09AF3D7981461C468A460846ADF1240D3F88069286
:2058700007F040FF0026FF214BA3DFF8C8810790089108B3401E0ED030460090019040F29E
:20589000EB110290032203903CA3049037A004F00BFD0A2066E051A00090CDF804904FF4DF
:2058B000F37102940122039730A0049504F0FCFC404600F1040B0FE04AA00090CDF8049084
:2058D0004FF4EC7102940122039728A0049504F0EBFC404600F1020B05901FBB07EB040898
:2058F000B8F1020F18DAB8F1000F03D1182D10D0122D0ED0DAF80C0006992246C01905F06B
:2059100049F8B8F1000F1BD0ABF800800798089016E040F2FF1101E04FF4FB71304633A325
:205930000D2604E0304640F2F11139A307260090019002900390032204900CA004F0B4FC3E
:205950000898FF280DD00598806850B1056845B1E419A0B20090079A069B41F210114846A7
:20597000A847304609B0BDE8F08FC0466C65645F736572766963652E6300C0464174747218
:20599000696275746520776173206E6F7420666F756E642E00C046C057726974654174749E
:2059B000724342203A20257320636F6E6E48616E646C6528256429206C656E282564292081
:2059D0006F666673657428256429206D6574686F64283078253032782900C0464C454431B1
:2059F00000C046C04C45443000C046C0496E76616C69642076616C7565206C656E67746860
:205A1000207761732072656365697665642E00C0416E20696E76616C6964206F66667365CD
:205A30007420776173207265717565737465642E00C046C0081600202DE9F04F774F1E46D4
:205A5000ADF1340D01914FEA960902923D680090710809F1020221F0010105EB8200091D02
:205A70000390901805EB80000490501805EB80038018059305EB8000079026F0030000F1BB
:205A9000080802EB080005EB800340180893801805EB80000990C6F39C008000083002EBF0
:205AB0004000411805EB800305EB810B0A938918831805EB8104404405EB8303C6F39901B3
:205AD00005EB80008900069038680B930A010021803206F069F84A49DFF828A109682846A2
:205AF000AAF1880290470746B94518BF6FF0010040F0828028465546394605F16802904727
:205B10000198314609F068FF002818BF012073D10298314609F060FF002818BF02206BD1DB
:205B300003980199A84704980299A847009881680598A847344B0399059A20469946C847F0
:205B5000012802D1BD0066590EB1032054E020460021424606F028F80499059A2046C847D1
:205B7000012801D166590EB1042045E0284B274D079803991E462A46B047089804992A46B9
:205B9000B047079909980A46B0470A980999079AB047204D0B9807992A46B04720460021FC
:205BB000282206F001F81C4B0A990B9A20469946C847203520462A460146C84708995846D9
:205BD0000A46B04706980021424605F0EDFFFDB2584625B9F9B20229B8BF012200DBFAB224
:205BF0000021635C455CAB4218BF052004D1491C521EC9B2F5D100200DB0BDE8F08FC04639
:205C10008C4F0020B9DB0010C9DE00100C190020F9E0001014180100C9E60010884F00200D
:205C30002DE9FF478146714CDFF8BCA1E069884600284CD1B9F1000F00F09480B8F1000F6F
:205C500000F09080484609F01DFB05460A2D23DAD8F814702574002F37D0680010216A46AA
:205C700000EB85002330C0B209F010FF90B950460778FF21102268460AF02FF850B93FB957
:205C900099F80600494600F001000AF035FF01E00120A074E0691AE004F1E6070A2600251F
:205CB0003846FF2106220AF018F868B9761E07F10E0705F10105F3D1607C002804BF0A2091
:205CD00020744FD094F836502574E06900E0257C0A2D47DA002835D168000E214A4600EBF4
:205CF00085002030C0B202F077FD207C07F00CFE6846FF2110220AF078FC207C10216A465F
:205D10007030C0B202F068FD217C0E220801A0EB410000194946E6300AF0AEF8D8F8142006
:205D30006AB15046007840B9107C02F11101002300F001000AF0DCFE01E00120A074C4F8E6
:205D50001C804CE08268002A3ED10269002A2FD142690ABBC2683AB9A07B08B109F05CF805
:205D700009F085FE01203BE06800102100EB85002430C0B202F030FDE769217CFA684800D6
:205D900000EB8100103225300421C0B202F024FDE1690020C86022E06800102100EB8500A9
:205DB0002330C0B202F018FDE1690020486116E068001C2100EB85002230C0B202F00CFD2A
:205DD000E169002008610AE068001C2100EB85002130C0B202F000FDE169002088600020BD
:205DF0000090BDE8FF87C0465A4F0020540E00202DE9F04F6C4CA068ADF13C0D002800F073
:205E1000858004F1B80B4FF00D0A4FF00A094FF0010878E00AF068FE2178CA0002EB41126A
:205E30005A44B2E8E01004ABA3E8E010E0CAE0C364CA4F1C07F01F0183E8640004F10C052E
:205E5000627821708A4208BF84F80280FBF7CAF8BDF83630A6212FA2284609F04BFF2846B0
:205E70000AF038F9049F4619B8B209F065FD4AA20CCA02F033FC4AA20CCA02F02FFC07F067
:205E900021FE009025A2A91B3B0C3046A63109F031FF28460AF01EF9BDF834704019BF1EED
:205EB00004D07F1E14BF21A229A200E031A206990091059B2F1A07F1A60109F01BFF284614
:205ED0000AF008F94219A0682946521B0AF01AFB099800900A9E01960B9F02970C9B039379
:205EF000089B079AA621284609F004FF28460AF0F1F8421902F801AB02F8019BA0682946BE
:205F1000521B0AF0FFFAA078002883D00FB0BDE8F08FC04623253036752000C05B2025648E
:205F30002E25303375205D2000C046C01B5B33323B316D494E464F3A201B5B33303B316DD7
:205F50002825733A256429201B5B306D00C046C01B5B33313B316D4552524F523A201B5B7F
:205F700033303B316D2825733A256429201B5B306D00C0461B5B33333B316D5741524E49BA
:205F90004E473A201B5B33303B316D2825733A256429201B5B306D00000000000000F03E43
:205FB0000000000000408F40080200202DE9F0430546880FADF1140DC0F0BF80604C201DD6
:205FD000006840688768C668406800B18047002F08BF002E08D00AF02DF807B1B84706B1DB
:205FF000B047584809F0D0F957480AF0FFF8574A40F60A0CA2F800C000205080117B60F392
:20601000030111735060517B4FF0010969F303015173AB686E7C58801988A1F60201C9B175
:2060300041F21E07C91B15D041F6E677C91B012920D8597E012E60F38201597606D0198B70
:2060500021F47C7141F43471198313E0198B60F30911F9E7597C012E60F38201597405D058
:20607000198A21F47C7141F4347102E0198A60F309111982D5F8088068746146464600E0C0
:206090003E46776817B13B889942F9D17260737B60F303037373E76E3FB1FB681B88CF1F25
:2060B0009F421AD0891F994217D02F8CB7B1686205F12001488095F82C3060F3030385F810
:2060D0002C3095F82D3069F3030385F82D305160517B60F30301517300E0A0601C480168E9
:2060F0008768C568009110226946406B019720F0784040F0805003901648029504F04AFC35
:2061100009F098FF14486061607F68B91348006801684846884701280CD0707B69F30300EA
:2061300070730F4F676105E007F030FF0028FBD00AF043FA40460AF059F805B0BDE8F08373
:20615000E01A00200100070601010E041C2500204C13005018000021DD330000E0010010A9
:2061700001D100002DE9F04FADF1240D079001F0BBFD5F48007809F0F5F95E4D00240128DB
:2061900006D90C3804D0401E0ED0401E09D006E009F0CAFD022804BF01210C1C06D0696801
:2061B00005E005211F2401E0032107246960524A1068C0F38150012806D152F80C0C012766
:2061D000020E07FA02F004430AF008F805F1440AFF2253464018401E471C28607F1E03F834
:2061F000012BFBD1079A1268002602F0FF03FE2B1DD0DDF81CC0964633460EF0FF07FF2F14
:206210000ED0B84205D3B94203D80122BA40144201D0022069E016430EF0FF020AF80230AD
:206230005CF804EF5B1C0EF0FF07FE2FE7D1092003F02EFD07980121A86005F1280008F081
:2062500071FF00274FF0010BB9462846804600F198050BFA07F0044216D1064204BF07F060
:20627000FF0141F4C04104D01AF80700079951F820102248FAF72EFEF8B24FF0FF3109F039
:2062900095F9C5F8009001E004202860D8F800007F1C2D1D8742DCD904A809F07FFF184CCC
:2062B000184A2078102104AB059008F10C0007F06DFF684609F0A2FFCDF80C906A466068D6
:2062D0001149029008F1640007F0F8FF0F4951F80D0C20F4F85040F4005041F80D0C0C4F30
:2062F000C1F8FFBF4846C7F800B009B0BDE8F08FB525002028110020B43F0050007FC767FA
:20631000681C010065FB00005DDF00000D3009400800094061480178002900D170472DE98C
:20633000F843491E032984B004D9891F012940F2B180A9E05A4CDFF86C912068DFF86881EE
:2063500003685A4E03F10805062205F1080102A809F092FD0622A91C684609F08DFD287802
:20637000C1091D2700F00F02032AC0F3801537D16079C0F3800081421ED12169062202A867
:2063900009F0AAFA00287AD0694628460AF02CFC002874D0314668460AF022FCFF286ED091
:2063B0004743D8F80000807AF519002818BF02280AD0012818BF032861D1F25D691C4846A9
:2063D0000AF08EFB10285AD06B46EA1D294648460AF082FB06226946E81D09F04DFD4EE04F
:2063F00000F00F00052855D16079C0F38000814245D12169062202A809F06EFA00283ED063
:20641000694628460AF0F0FB002838D0314668460AF0E6FBFF2832D04743D8F80000807ABD
:20643000F519002818BF01280AD0022818BF032825D1F25D691C48460AF052FB10281ED04B
:2064500040F2024007F058FF6B46EA1D294648460AF042FB06226946E81D09F00DFD144843
:20647000144A41F20441418041834186124801801249134811600121007803F093FA216845
:206490000A680020107105E0002009F0C5FB86200AF082FB05B0BDE8F08300BF6F4F002094
:2064B000F44B0020CC470020104F0020AC450020204A0020204F0020504F00205955011013
:2064D0006E4F00202DE9F04F0746ADF1140D0393002F02920E9801910F9C049000F0B68078
:2064F000081C00F0B380101C00F0B080181C00F0AD800498002800F0A980002C00F0AB8084
:20651000206A002800F0A280564D666A281D0068002E00F09B80A16A0AF0DAFA40B200285B
:2065300008BF6FF0020700F08D8084F82C002078618800EB80000918143188B2216A884791
:206550004749086030B9284640680AF0BDFA4FF0FF3777E08B46628823786088DBF8001096
:2065700025789E1800EB010A701800F1040805EB450002EB4306851876186D18C01805F154
:206590000C098018401800F11005204607F02EFA2078C01C8010CAF800002078C01C801091
:2065B000C8F8000020780836C01C801030602078C01C8010C9F800002078C01C80102860E8
:2065D000227839460AF1040004F0E4F92278019908F1040004F0DEF922780299301D04F050
:2065F000D9F92378204641463246FFF725FA071C12D100955046414632464B460AF060FA8F
:2066100047B22278039809F1040104F0C3F922780498291D04F0BEF921786288DBF8000010
:2066300001EB81015218002105F0BEFA616ADBF8000088470B4840680AF046FAF8B2992897
:2066500008BF002784F82C70384606E01CB16FF0010084F82C006FF0010005B0BDE8F08FB2
:20667000884F00200419002010B5401EADF1280D30D0401E28D0801E22D0401E1CD0401E52
:206690000DD0401E07D0401E5BD1002040F2733131A304464CE040F2673131A317E040F247
:2066B000153006A901F0DEFC06A807F043F8002440F2623131A33BE040F26F3139A306E0BF
:2066D00040F26B313DA302E04FF4567140A3002420462DE04FF4417008A901F0C3FC9DF8AC
:2066F00021308DF8193000248DF81C408DF81B409DF822208DF81A209DF825108DF81F1072
:206710009DF820008DF818009DF824309DF823208DF81E303C498DF81D2006AB5868486023
:206730001A680A6008A807F005F840F253312BA30090019402940122039403A0049403F092
:20675000B3FD0AB010BDC04670726F6A6563745F7A65726F2E6300C04572726F7200C04675
:20677000436F6E6E656374656420616E64206164766572746973696E6700C046436F6E6ECF
:2067900065637465642E205065657220616464726573733A201B5B33326D25731B5B306DB7
