:20000000004000201DDA000001C9011001C9011001C9011001C9011001C9011001C9011067
:1C00200001C9011001C9011001C9011001C9011001C9011001C901103FC9011089
:20003C002DE9F04FADF12C0D00F0F6FBB348B14D4FF00009C846A4380790A868AE4A49463E
:20005C004FF0FF3300F0D8FB0028F6D0484605900DF11A0105AA06A80EF04CFC002840F02B
:20007C008980BDF81800012710287ED128789DF81A10884279D1059C20884FF6FF718142AB
:20009C0073D02678913E5DD01F3E6ED1607816282CD020797E281DD07F280FD000904846E9
:2000BC004E4601904A46029640F2CB410392B0A304963A46AAA00AF03DF834E020890090D1
:2000DC004E4601964A46029240F2C6410396B2A30492EEE7207A00904E46019640F2C1419A
:2000FC00029603220396B3A30496E3E720794E46009040F2A941019602220296BCA30396B0
:20011C0097A0CDF810900AF015F86E6A8EB94FF6FD70CA49CA4A00904B46102006F0ACFC39
:20013C006E6AC3B22BB1217904F1080000F068FB1BE046F0010638466E6208F0EFFF4F468F
:20015C002C6112E060780E280FD1CDF8009048464E464C46019040F28C413A460296C7A3FB
:20017C0003947FA0049609F0E5FF059810B10FB110F059F8E86800F047FB00287FF45DAF9E
:20019C00E86800F045FB014601F10904097A0890002900F08581491E00F0B280491E00F063
:2001BC009580491E00F0A282491E64D0491E43D0491E03D00A3900F094829AE2686A400865
:2001DC00C0F097822F69002F00F09382A87807F10806401CA870C14900967A883B7910204E
:2001FC0006F04AFC5FFA80FABAF1160F14D06F6ABAF1040F10D037F001076F6208D14FF68B
:20021C00FD708E498E4A00900123102006F034FC504608F083FF6CE2286900790090A87884
:20023C004F464E464C46019002220297B9A3039640F21551049419E1C77A00F10904002F0C
:20025C000CBFC0A0C2A000904E464F464FF443714846019001220297BFA3039640A00497F4
:20027C0009F068FF484600909B4922884B46102006F002FC3DE200F10904407A0D2814BFC2
:20029C00C2A0C5A06778002F0CBFC6A1CAA14E460122CEA300904F460191484602904FF48E
:2002BC00637103972EA0049609F044FF27780D3F09D07F1E40F01D8201200146641C224690
:2002DC0005F06CF815E201214846F7E7278841F2101022463F1A06D0103F40F00A822079E7
:2002FC006188641DEBE710795188521D07F068FBFFE1C046C00700200F0000C0E8080020CF
:20031C0027880FF2D02CB8A2BDA1B7F5895719D0103F40F0EE81B4F8050040B1401E04D026
:20033C00401E08BFCDF824C002E0099200E009912079012840F0DD81099ED0A0D3A740F2C9
:20035C0065418AE0B4F8050000287BD0401E04D0401E08BFCDF828C075E00A9273E0C046FF
:20037C0070726F6A6563745F7A65726F2E6300C052656365766965642047415454204D65B1
:20039C0073736167652E204F70636F64653A2030782530327800C0464D54552053697A65CE
:2003BC00206368616E67653A20256420627974657300C046466C6F7720636F6E74726F6CB2
:2003DC002076696F6C617465642E204F70636F6465206F66206F6666656E64696E672041BB
:2003FC005454206D73673A2030782530327800C04F7574676F696E67205246204649464FC9
:20041C002066756C6C2E2052652D7363686564756C65207472616E736D697373696F6E2004
:20043C006F66206D73672077697468206F70636F64652030782530327800C04649D0000008
:20045C004BFC00000A912779A7B17F1E40F05181C9A740F20741C4A00A9E00900197029651
:20047C004C4603944B460493A4A30122AA4809F061FE3EE1BAA74FF47F71ECE748434920E1
:20049C00436F6D6D616E6420436F6D706C657465204576656E74207265636569766564009F
:2004BC00278841F210103F1A00F0B380203F40F020812779A7B17F1E40F01B8160790090A8
:2004DC00A0790190E0794F464E460290ACA3039740F237410496C8E745E90000DDFE00104D
:2004FC00C448494628220BF0EDFAC248641D272221460AF095F9BF4E97A760A000904C46E9
:20051C0001974A4602964FF486610394ABA30492ABE7C0465265747279696E67206D657309
:20053C00736167652077697468206F70636F6465203078253032782E20417474656D707495
:20055C0020256400446973706C6179696E6700C053656E64696E6700426F6E644D67722071
:20057C005265717565737465642070617373636F64652E2057652061726520257320706130
:20059C007373636F6465202530366400427574746F6E203100C046C0427574746F6E203050
:2005BC0000C046C01B5B33336D72656C65617365641B5B306D00C0461B5B33326D70726523
:2005DC00737365641B5B306D00C046C0257320257300C046496E6469636174696F6E73208C
:2005FC00656E61626C6564004E6F74696669636174696F6E7320656E61626C656400C046C9
:20061C004E6F74692F496E642064697361626C656400A178079A601D0CF070F82779661DC4
:20063C000FF2B41B0FF2B41A002F33D07F1E60D144A0009046A701976D4F40F2C7310122FD
:20065C005EA302974F4603973348049709F072FDA869627907210DF025FE377807B1D34683
:20067C0034A000904E46CDF804B04F4602974C46039640F2CF31049431E0C0464461746139
:20069C00205365727669636500C046C053747265616D00C0564C2BA0009024A701974FF4B8
:2006BC006E71012245A302944F4603971A48CDF8108009F03FFDA869327806210DF0F2FDB5
:2006DC00377807B1D34615A00090CDF804B04F46CDF808804E4603974FF47071049640A30F
:2006FC00C3E60820494603F069FA02E0407A05F061FF08980DF078FF3CE5C04643434344EF
:20071C00204368616E6765206D73673A2025732025733A20257300C07C0300001B5B33313B
:20073C006D4C4544301B5B306D00C0464C45443000C046C01B5B33326D4C4544311B5B3053
:20075C006D00C0464C45442053657276696365004C45443100C046C0537472696E6700C041
:20077C00425554544F4E3000427574746F6E205365727669636500C0425554544F4E310017
:20079C0056616C7565204368616E6765206D73673A2044617461205365727669636520533B
:2007BC00747265616D3A20253032783A253032783A253032782E2E2E00C046C056616C7551
:2007DC0065204368616E6765206D73673A2025732025733A202573006F6666006F6E00C057
:2007FC005475726E696E6720257320257300C04644080020E8080020DFF800F0F99B011098
:20081C00DFF800F089840110DFF800F04FBF0110DFF800F0F1BF01102DE9F04F914C04F142
:20083C0008012046ADF1940D0CF022FE0FF2741A00200746009040F2DF11019701220297D0
:20085C005CA303975046049709F074FC04F1480528463946E76100F027FB04F1600004F176
:20087C006C01E56009F000FEA06170B90097384601904FF4F8710290032203905DA3049059
:20089C00504609F057FC00F013FB04F1540004F1780109F0E9FD606178B90097384601902E
:2008BC004FF4FB710290032203905BA30490504609F040FC00F0FCFA60696B490FF005FC63
:2008DC0070B10097384601904FF4FE7102900322039059A30490504609F02CFC00F0E8FA20
:2008FC0005A839462422082300F0E6FA604E4FF47A7832250D20DFF8749132680B9005AB47
:20091C0004F1E000B8FBF2F18AB26A43494600F0D7FA0E2031680B9005AB04F58270B8FB67
:20093C00F1F189B24D432A46494600F0C9FA0125ADF83C7040F205300DF18E028DF88E506D
:20095C00294602F0B5FE40F2063002210FAA02F0AFFE621C4FF44270294602F0A9FE04F114
:20097C00940240F20730142102F0A2FE04F1BD00394620220BF0A6F804F1940604F1BD0840
:20099C003846325C401CC0B231180B78092B18BF082B01D11F2A6DDB8018C0B22028F0DBD7
:2009BC006DE0C04670726F6A6563745F7A65726F2E6300C0496E697469616C697A696E6776
:2009DC00207468652075736572207461736B2C2068617264776172652C20424C4520737428
:2009FC0061636B20616E642073657276696365732E00C0464572726F7220696E69746961F9
:200A1C006C697A696E6720626F617264204C45442070696E7300C0464572726F7220696E2F
:200A3C00697469616C697A696E6720627574746F6E2070696E7300C04572726F722072650F
:200A5C00676973746572696E6720627574746F6E2063616C6C6261636B2066756E637469FC
:200A7C006F6E00C0C007002009AA00006DB8000094190100491C521E404609F0D1FECDF868
:200A9C0000803E460197504640F22E2102962A460396C6A3049609F04DFBC24F1020062239
:200ABC00A023394605F0E8FF10200722A023394605F0E2FF10200822A023394605F0DCFF1F
:200ADC0010200922A023394605F0D6FF10202A461E23394605F0D0FF8DF88F500EAF8DF8C9
:200AFC00905028468DF892004FF481620E9604238DF89160AC4D00971020294605F0BCFF2F
:200B1C000DF18F004FF48062012300902946102005F0B2FF24A840F20242012300902946A9
:200B3C00102005F0A9FF0DF191000090294640F203420123102005F09FFF0DF192002946E1
:200B5C0040F2064201230090102005F095FFC34910204FF0FF3205F08FFFC14910204FF0EA
:200B7C00FF3205F089FF1027DFF8F892BE48BF4A0097132349460190384605F07DFF04F133
:200B9C00A80032461523BA490090384605F074FFBB46B948B74FCDF800B0052349460190A3
:200BBC0007F10C02584605F067FFB0463546052000908CA30195D82102950122039585A0BF
:200BDC00CDF8108009F0B6FAAC4E94F800A0307880000FF062FBAA4D0146E96039B34FF699
:200BFC00FF700DF0E7FC307880000FF056FB01462961E1B14FF6FF700DF0DCFCA14958469E
:200C1C0005F11402009007230191494605F034FF474607200090FE2101970122029771A3DE
:200C3C00039779A0049709F085FA85F800A03078277880000FF031FB934E0FF2E0190146A1
:200C5C00F160D9B14FF6FF700DF0B4FC584600908E490191834906F14C02062305F00CFF6B
:200C7C000620009040460190EB210290012203905CA30490484609F05DFA37707D4904F164
:200C9C003000474688600FF2A41800900122019743460297E72103974EA0049709F04AFA01
:200CBC0004F13800A8603D46009040F20F110195012202954346039553A0049509F03AFA54
:200CDC0004F14000B060FC210090012201953E460296434603964846049609F02BFA0DF1CB
:200CFC003E00282239460AF0EDFE69490DF16600282209F095FD01210DF13E02384606F02D
:200D1C005FFE01200DF13E02014606F059FE384601210DF13E0204F041FB01200DF13E02FA
:200D3C00014604F03BFB384628210DF1660204F021F8012014210DF13E0204F01BF8554DAF
:200D5C0069782878A1B904F1200129620DF0F6FF05F154070096024605F14400019005F119
:200D7C001C0302974C490393AB78584605F084FE4A4904F12802584605F07EFE20780DF0E6
:200D9C00DDFF47490246584605F076FE20780DF0D5FF44490246584605F06EFE25B0BDE8C5
:200DBC00F08FC046D9E70000194700004E616D6520696E2061647665727444617461206159
:200DDC00727261793A201B5B33336D25731B5B306D00C0466C65645F736572766963652E32
:200DFC006300C0465265676973746572656420736572766963652C20256420617474726936
:200E1C00627574657300C046627574746F6E5F736572766963652E6300C046C064617461B0
:200E3C005F736572766963652E6300C0526567697374657265642063616C6C6261636B7327
:200E5C0020746F206170706C69636174696F6E2E2053747275637420257000C0E9F200009C
:200E7C0071F50000E5EE00000019010064100020EDB50000E81700202C160100694F002093
:200E9C0078160020A815010030150020D41501007D150100800C00203BDC0000E1F700004D
:200EBC005188011031810110DFF800F0A1B60110DFF800F019B10110DFF800F0C1BF011040
:200EDC00DFF800F069B201102DE9FE430DF0CAFADFF80481814608F1020000880027001FFF
:200EFC0084B2042C5ADBFF254FF6FF762046694604220DF049FDBDF800309E4237D0002BE8
:200F1C0035D0D80BC2032FD19D422DD0381FDDB280B2042815DBB0F5805F12DA00F18852BD
:200F3C00126801A90A60BDF804108D4207D0BDF80610401A001F80B20428ECDA01E001232B
:200F5C0000E00023BDF802001BBB211A001D8BB282B207F1885118460DF016FDBDF8020026
:200F7C00C119091D8FB214E0BDF8020011E0BDF8020003466FF30E0363B9011D8C4208DA1B
:200F9C0000200EF0C7FC48460EF0A8FC0020BDE8FE83241A241FA4B2042CA7DA0CF096FDC7
:200FBC003FB10C484FF088513A460FF012F90EF005FF48460EF092FC4246507800281CBFC0
:200FDC000020011C03D1C7F58054391DA0B25180BDE8FE8304E001003C1900204FF0FF31EC
:040FFC0001607047D9
:20100000B41200001810000015AB0110FDB301106DC00110FDAE011099B5011000000000F7
:08102000000000002D0000009B
:20102800B01200003C100000B1C00110A9BF011067C0011069B80110000000000000000035
:041048003000000074
:20104C00B012000060100000BDC00110CDB30110D9BD01106DB3011000000000000000005B
:04106C00310000004F
:20107000000000001C1C002004000000000000000000000020000000E8C9011030000000F2
:2010900028100000241C00200400000000000000000000000C000000D8CA011018000000CD
:2010B0004C1000002C1C002004000000000000000000000024000000F0CA01101800000051
:2010D00000000000341C00200400000000000000000000001000000018CA01102C0000005D
:2010F00000100000441C0020040000000000000000000000200000006CCA011024000000C1
:20111000FFFFFFFF4C1C00200400000000000000000000002800000090CA01102400000080
:20113000FFFFFFFF541C00200400000000000000000000001400000008CB011018000000FF
:20115000FFFFFFFF5C1C002004000000000000000000000058000000B4C9011034000000CD
:20117000FFFFFFFF641C00200400000000000000000000001000000020CB0110180000009B
:20119000FFFFFFFF6C1C00200400000000000000000000001C000000B4CA011024000000C8
:2011B000FFFFFFFF741C00200400000000000000000000003800000044CA011028000000F0
:2011D000FFFFFFFF7C1C00200400000000000000000000005400000078C901103C00000065
:0811F000020000005C1901007F
:0411F80001000000F2
:0411FC0000000E00E1
:0412000000000F00DB
:0412040032000000B4
:0412080001000000E1
:04120C00701B002033
:0412100000020000D8
:0412140000000000D6
:0412180001C90110F7
:04121C0000000000CE
:0412200000000000CA
:0412240008000000BE
:0412280000002200A0
:04122C00C0190020C5
:0412300000000000BA
:0412340000000000B6
:0412380008000000AA
:04123C00301B002043
:0412400000000000AA
:0412440000000000A6
:04124800080000009A
:04124C00000000009E
:04125000000000009A
:041254000000000096
:041258000000000092
:04125C00010000008D
:04126000581A0020F8
:041264000600000080
:041268000100000081
:04126C00F018002056
:04127000000000007A
:041274000000000076
:041278000002000070
:04127C00000000006E
:02128000290043
:02128200010069
:02128400250043
:02128600300036
:02128800310033
:02128A002D0035
:02128C0001005F
:01128E00015E
:08129000030000001819010021
:0812980000000000000000004E
:0412A0000000010049
:0412A4000000030043
:0412A80013C401105A
:0412AC00CFFC000073
:0412B000B812000070
:0412B400B81200006C
:0412B8000000000032
:0412BC00E41B00200F
:0412C00073FE0000B9
:0412C4002000000006
:0412C80060180100A9
:0412CC004C170100BA
:0412D00029C101101F
:0412D400CFE5000062
:0412D80043E90000E6
:0412DC00A1C7011095
:0412E000A3C701108F
:0412E4000000000006
:0412E8009B1701004F
:0412EC0034140100B5
:0412F0004C14010099
:0412F4001C140100C5
:0212F8000200F2
:0212FA000900E9
:0212FC000100EF
:0212FE000000EE
:0113000001EB
:0413040001FE0000E6
:0413080061E500009B
:04130C00E5F3000005
:04131000A9E8000048
:0413140099E5000057
:0413180005D90000F3
:04131C0099B1000083
:04132000A90001001F
:04132400D9CD00001F
:0413280015C70110D4
:04132C0025C70110C0
:201330002DE9F04FD44C04F118012046ADF1340D0CF0A4F800264FF6FF70667001212082C9
:2013500004F1A4000DF0D8F9022104F1C8000DF0D3F9042104F1EC000DF0CEF94FF0040A56
:2013700004F1440810224046314684F802A00AF0AFFB04F154091022484631460AF0A8FB05
:2013900004F11C073E6004F10A052E70E671267207206072CDF80080DFF8F8820222102013
:2013B0000346414605F06EFB102003224146CDF80090034605F066FB102052464146009739
:2013D000134605F05FFB4FF0080B4FF0030905F12A00079005F17900089005F11E0009904D
:2013F00005F15A000A9024350B9517E06078A28FE18FB4F84050B4F8423006280ED1ADF87E
:201410000A20ADF80C10ADF80E50B948ADF810300EF05DFF012002A90AF018F8A069B34AB2
:2014300031464FF0FF33FFF7EDF9071CF6D0059606A80DF11A0105AA0DF062FA002840F02D
:20145000BD81BDF818102078102940F0B3819DF81A10884240F0AE81059D29884FF6FF723B
:201470008A4200F09C812B78A23B00F07F812E3B40F0A081A978B046002900F03B81891EC6
:2014900000F00A81491E012940F2D980891E00F09C80491E6FD0491E5CD0083900F05681B1
:2014B000891E40F0598194F83A30A888052BADF8080047D001208DF812008D480EF007FFC0
:2014D00094F83A0001281ED004281CD003280DD002280BD00598C188ADF80A100189ADF826
:2014F0000C104189ADF80E10818927E0A08FE58FADF80A00B4F84030ADF80C50B4F84210B5
:20151000ADF80E301AE0A08FE9888842D8BF081CADF80A002989E08F8842D8BF081CADF8BF
:201530000C006989B4F840008842D8BF081CADF80E00A989B4F84200884200DC0846ADF8C0
:20155000100001E08DF81260A849102002AA05F099FA01E1A6480EF0BAFE6B78002B40F07A
:20157000FB80E88860822889A0826889E08260480EF0D0FCF0E0AA88B449102005F082FA56
:201590000798414606220AF0A3FA6682A682E682A879207356480EF09AFE95480EF097FE86
:2015B0004FF001084FF6FF702379208253B9A879082812BF84F801A00520607040460EF01D
:2015D000D1FCC9E084F80190C6E06B787BBB291D07980A6802608988818006236370688901
:2015F0002082E8896082288AA082688AE082E878E07294F83A00012818BF02280BD199495E
:2016100010201F2205F03EFA4FF47A7180B2414337480CF0A1FE688900909149CDF804A05A
:20163000EA7810202D1D2B4605F02CFA97E06878312840F08880E67084F801A08FE06B7885
:20165000002B40F08080A878E3896178032815D0E078257923B9012814BF2671E67006E009
:20167000054304D0804819460CF076FE61780729E2D10620607072E0800C0020062907D0F1
:20169000E578002D08BF84F8019068D00220F1E70720EFE7A5F700006B78002B53D1EB787C
:2016B000617893B902291DD007291BD0062902D12079012816D1032914D06B480EF02AFC30
:2016D00080B901200EF04EFC0CE00DF03DFB0246A07962490090089843460190102005F0BC
:2016F000D1F968706D78002D2DD135E007000080480D00206B7833BB5C485749009002224E
:201710001020034605F0BEF959484A46524900901020034605F0B6F9ED1C0998296801607F
:20173000A98801238180207863700DF00DFB024601230A9D6079494900901020019505F00A
:20175000A1F9C0B258B184F801B008E0AA8841491020052305F096F9B8F1010F2AD1256A74
:2017700045B32D6835B36078A84723E06879132820D12889012808D1607B022805D11C481B
:201790000EF0A5FD0DF0EEF814E036491020052205F078F981B216480CF0DEFD0AE0688844
:2017B000C00B07D3334852462B4900901346102005F068F9059808B10EF03BFD2579E078FC
:2017D000790830D355EA00032DD0204600788DB9E179257A8DF808100B9A8DF8095013687E
:2017F0000DF10A052B609288AA8005E0051601106C0D00208DF80890617A8DF81010A17A9B
:201810008DF811100DF0A0FA1149024602AB102005F038F938B1256A84F801B01DB12D68CE
:201830000DB15846A847B80803D31349304609F00DFEF808FFF4F2AD607B401E3FF4D6AD60
:20185000401E7FF4EBAD0DF08DF8E7E53DD4000059440110C11701103D86000009450110F7
:20187000058A000019FB0000240D0020C40C0020D40C00209C0C0020BA0C00202DE9F04F71
:201890000F46CD4C0168E16241688068ADF11C0DE060C548A1608047C448E16A0160A168F0
:2018B000DFF810A34160E168DFF804938160CE49002FA346C1606FD03D68E8788DF80C0030
:2018D00028798DF80D0003A80FF038F8A86808B1C6490160E86808B1C5490160C54C287889
:2018F00020706878BE686070A878B268A0703178A2607368E1702E696360EA69266279683B
:20191000E2620868E06068696062A8697B68A062286A9E68206395F8240084F834001EB9E7
:2019300000200DF0FDFF00E066617868C06818B900200DF0F5FF00E0A0617868006918B9F2
:2019500000200DF0EDFF00E0E0617868406818B900200DF0E5FF00E0206128692062F8681F
:2019700081680E6806B9D24ED0494FF001084E60C66881F8018036B900200DF0D1FF4D4673
:201990002E68F86801E04D462E6000685446FB68A0615868E06107E000200DF0C1FF4D4681
:2019B0002E684FF001085446361DC749366804F1080350205246B04710B12868806880479F
:2019D000DBF808008047C24E002781463B46BF487770694660610422337038460CF0DAFF5C
:2019F0000098B0F5801F0CD020B90DF0CBFAFFF771FA08E00CF070F80EF0E6F904207080E6
:201A100001E00DF0BFFA3846BA4EE0602B68B760986980477060AF4880F8008039464180E8
:201A300014200EF0A7FAFF211422A0620EF057FCE01CFF2102220EF052FC14200EF09AFAC8
:201A5000A54F38603868002114220EF048FC002000F052F940460CF03DFBA0480188FF2903
:201A700006D1022101807822001D00210EF037FC03200EF05FFF04200EF058FF05200EF0B7
:201A900051FF06200EF04AFF07200BF06FF9944E0820307006F124000EF03CFF0BF024FBD7
:201AB00006F1360A05200A2152460DF073FE38B10020C0F10901401C0AF8011B0A28F8DB46
:201AD0003078102107F0BCFE2B68864909200DF10E025E68087001AB10200021B047A06A97
:201AF000E1690A260A309DF80E20761E00F8012BF9D1891EE161DBF80C104846884704F1B3
:201B100020002B68626A059040461E69DFF8D88104F120034146B04710B1286880688047CE
:201B3000B8460DF053FB5FEA000903D008F042FD4FF0FF39002643E00298616910F8062C92
:201B5000A0F10C07032A03D1002939D0884737E0A16A9DF810C00A223046491E11F8013FF6
:201B70009C4506D0521E00F10100F7D14FF0FF0A01E05FFA80FA2868BAF1FF0F00F1080036
:201B90001CD038790CF090FCB979012904D0022904BF0299887001E002990870029950463A
:201BB0000DF03EFD0CE0C04641490010F8440020941C0020B81A0020DC15002000688047F3
:201BD0002868C36904A902AA0DF10F0098470028B2D0D8F800007700C35B6BB9761CF6B287
:201BF0000A2EF8DB2BE0C046540901008DEE0000E9FA0000881900200A2E20DADBF808002F
:201C10008047D8F80010002231F807A0CA53DBF80C108847354850F8262066705146304652
:201C300090470646FF206070DBF808008047D8F800107A5A16437E52DBF80C1088470DF048
:201C5000C5FA0746B9451AD007B9294FE069B84238BF071CDBF80800804781462868016A87
:201C7000206A8847626A28681F49059B521C6262C6683846B047DBF80C1048468847E76827
:201C90002968A0681431AFB9D8F800000A270026835B33B10969A06888472968D8F800005B
:201CB00014317F1E06F10206F2D107E0FC1B002003BF0000096988472968143109684FF0C9
:201CD000FF3088472DE7C04679F3000061FB00003C1900208C1C00209C250020FC160020C4
:201CF00094110020AE250020F1E40000D41601008EC2F5284C2500202DE9F84FDFF8BC135B
:201D1000DFF8BC23DFF8BC5308700821002010600D23DFF8B40340F232320170438082805C
:201D3000DFF8A8030560AC7EDFF8A4030470FF2CE97E417008BFFF292A7F82706B7FC370A6
:201D5000AE7F0671ED7F457115D1FF2A08BFFF2B11D1FF2E08BFFF2D0DD1DFF878130A78E9
:201D700002704B7843708A788270CB78C3700A79027149794171DFF860130278DFF85C831D
:201D9000DFF85C93DFF85C730A70FF2543784B7082788A70C378CB7002790A7140794871E1
:201DB00088F8005088F8015088F8025088F8035088F8045088F805500020CB490880D9F897
:201DD0003440CA49607808702278C9493A70A0780870A2681079C74A411E1170E078C6494B
:201DF000C64A0870E068106008B90DF099FD2069C34E306008B90DF093FD3068DFF804A3B1
:201E100001688847326852F8041F50468847BE48BE49CAF82000CAF824106069BC490860F3
:201E300008B90DF07DFDA069BA49086008B90DF077FDE069B849086008B90DF071FDDFF8FF
:201E5000DCB2B74C9BF804000EF094F80028206075D09BF80500B34E0EF08CF80028306000
:201E70006DD09BF80600DFF8C0A20EF083F80028CAF8000063D09BF807000EF07BF8AB49AE
:201E9000002808605BD039789BF80000891C484380B20EF06FF8A649002888604FD038789E
:201EB000002862D0BBF80210484380B20EF062F8A04A0028506042D038780EF05BF89E4922
:201ED000002808603BD0387840000EF053F89B490028086033D03878182148430EF04AF8F3
:201EF000974A106058B3387840010EF043F89549086020B3387800010EF03CF8924908600D
:201F1000E8B1387800010EF035F890490860B0B13878302148430EF02DF88D4A106070B183
:201F30008C483978007848430EF024F88A4A106028B138780EF01EF88849086018B9BDE85F
:201F5000F14F06F0DFBC4FF0000B09E00DF0EAFF0021418081600180022303710BF1010BA2
:201F700039785FFA8BF08842F0D32268694F0120107121680D732068457321688D73206801
:201F9000C57321680D7400212068457400202268D172A0222168487103212068C28001723B
:201FB0000720226850720021206881722821206801224182C2760020216848770022206801
:201FD00080F85E200121226811770120216881F85D0001223068027131680D7330684573B0
:201FF00031688D733068C57331680D7400213068457400203268D1720022316848713068D3
:2020100082724FF420703168C88008818A7401213368D974DAF800201573DAF800104D735B
:20203000DAF800209573DAF80010CD73DAF8002015740022DAF800104D740121DAF8003010
:20205000DA720023DAF800201171DAF800104B71DAF80010C88008818B720520DAF8002028
:202070009374DAF800103E4AC874106880473968054608688047396851F8042F002090472D
:20209000D9F80C101C4B0A881878364902430A802846354A136898470C2134480EF036FC4C
:2020B00040460EF02FFC0EF029FCBDE8F44F034800784FF4005107F0C3BB00BF6E4F0020EE
:2020D000044F0020B63F0050604E0020084F00202C4E0020E81200503C4E0020344E0020C3
:2020F000BC1901007B4F00200C4F00206D4F00206B4F0020724F00206C4F0020F04E0020C5
:20211000F44E00207C4B002085FF0000A5FF0000F84E0020FC4E00204C240020D81B0020CB
:20213000104F0020144F0020184F00201C4F002058250020684E0020004F002084250020D0
:20215000804E0020844E0020884E00208C4E0020904E0020B21C0020882500208C25002015
:20217000E4150020544F0020E8150020F84D00202DE9F84FD74CA178FF2904BF00200DF050
:20219000CFFBA0780DF0F8FD044604F1680504F190062968086810B10021E1830CE0A87BCE
:2021B000002804BFA97E002906D13078002801BF207F0128608CE0832189E08B4118491C83
:2021D000618120460EF096FB01281EBFC2480178012904D121890020491CE08361814FF6D7
:2021F000FF77A87E01280DD1AA8B618920890EF07DFB38B1218960894A1C93B298421BD002
:20221000A88B0FE03078012816D17288618920890EF06CFB80B1218960894A1C93B2984299
:202230000AD0708892B2904206D03818608180B20EF058FB3F18E78304F5967999F80400BE
:2022500020B120890021401CE183608104F12E07A87E01283ED12289A88B521C92B2904248
:2022700038D1608104F1860120460EF037FBA88C608400212177E183E08961894118A1814F
:20229000A88B21890EF02EFB8046B988288C6A8C01FB0808E88C8A4204BF3989884202BF1D
:2022B000AB8CF9888B4207D000090090AB8CA179520800200EF00EFBA87F3870698CB9804A
:2022D000A88CF8802046E98C39810EF0FFFA0220A87601E0B7F80480B4F81EC022687F4E81
:2022F000D2F80CE00CF1010000FB08F340F6C41000FB03F18E44C2F80CE03668DFF8E0E17D
:202310003678BEF80080774AB609032E11D1D67BF60748BF4FF000080BD408F101081FFAA0
:2023300088F6012E12BF668AB9F8066006F2DC5600E0668A5E434FF4C87AB6FBFAF6761CB5
:202350006661AEF80080A3614FF0180894F806A084F820C008FB0AFADFF88CC1DCF800E0B0
:2023700023680EF1080656F80AB0C3F810B094F806A008FB0AFACDF800A0D3F80CB0D4F841
:2023900014A0ABEB0A0ADDF800B046F80BA094F806A008FB0AFA56F80A609E600EF10C0661
:2023B000A37908FB03F30EF10C0EF65C06F0F00646F002060EF803604FF0000ADCF800E0FD
:2023D000A6790EF1020308FB06F623F806A0474BA6791B68760103F1140AD4F814B05AF86B
:2023F00006A00AEB4B0A03F1140B4BF806A0AD7E022D0BD1A5796D0103F1140697F800B0D2
:2024100056F805A000FB0BAA46F805A0BD88D27BA779D60737D508FB07F70EF10802D65952
:20243000A6F5A86A0EF1080646F807A0A77908FB07F7D2592768511A3961BA6003F11402E9
:20245000A1794901575807F5F667575003F11401A27952018958C9F800106843244A156B97
:20247000A779296803F11C067F01401AA0F51670F0512049A07903EB40100B78012B14D1FB
:202490000121C17214E003F114027F01D1592A464243A1F5E661A2F516729142DDD3082192
:2024B00020460EF00FFA012011E0916A4A78C272A179DCF8000008FB01F2811822685160E4
:2024D00007200D490870204609F078FB0020BDE8F28F00BF684E0020784F0020084F0020EC
:2024F000A42500205C4D0020804E0020844E0020BC190100734F00206F4F00202DE9F04F4F
:2025100009AFADF13C0D08900A92388809911E46ADF81800101C08BF002000F079810178E7
:2025300000274FF0010B401C4FF0FF39B846DA460A9065E1252940F05A810178401C0A9080
:202550002D2918BFADF8068004D10178ADF806B0401C0A9030291CBF4246434604D10178E1
:20257000401C5A465B460A902A29CDF800804D4617D1049330680A9BCDF80890C01C20F0E4
:202590000300001D306050F8044C1978002C009403F101000A9018D5ADF806A06442009491
:2025B00013E044460AE0600000EBC4004018A0F130040A9801780094401C0A90302901DB9E
:2025D0003A29F0DBCDF8089004932E2929D10178401C2A290A9011D13168CDF80880C91C09
:2025F00021F00301091D316051F8045C002D48BF454601782B46401C0A9011E045464346B2
:202610000AE0680000EBC5004018A0F130050A9801782B46401C0A90302901DB3A29F0DBA5
:2026300002930AB1224604926C2904D04C2918BFADF8048004D10178ADF804A0401C0A90D1
:202650000BA8CDF80C800FAB07906429059300F08680692900F08380BDF81830752968D0A2
:20267000782966D06F2964D070294DD063293DD0732922D00A98401E0A90099801281AD973
:2026900067490C68B5F1FF3F03D0A84288BF6D1C05D86FF00041814294BF0D1C099D02959C
:2026B00008A80AA932466B46A04709993F18091A0398099168E0454616E03068C01C20F0F9
:2026D0000300001D306050F8040C012B014608B951A0014607910DF081FB0390B5F1FF3FEE
:2026F00053D0A84251D9039528464EE03068C01C20F00300001D306010F8040C8DF82C0062
:202710005D460395584640E0082035680490E81C20F00300001D306050F8041C08221023CE
:202730000FA809F06FFD401E079040210170079827E03068C01C20F00300001D306050F884
:20275000044C752908BF0A2303D078290CBF10230823AA42BCBF2A1C049221460DE03068BB
:20277000C01C20F00300001D306050F8041CAA42BCBF2A1C04926FF009030FA809F042FDA8
:2027900007900599081A0390009C241ABDF8065000945DB906E008A8202109AA0CF034FCFA
:2027B0007F1C009C641E0094F5D50398401EB0F1FF3F03900FD1BDF8060001281CD100983E
:2027D000401E009018D408A8202109AA0CF01CFC00987F1CF4E70798017809AA08A80CF0D2
:2027F00013FC0798401C079003987F1CDEE708A809AA0CF009FC7F1C0A980178401C0A901D
:2028100000297FF497AE089808B14146017038460FB0BDE8F08FC046286E756C6C2900C043
:20283000A01901002DE9F84F0C46E00788B00BD50DF088FB28B100218160B348006800B1B1
:20285000804784F001005CE1A0070FD50021002306910591049103930291019100910122EF
:202870003C200EF02BF884F002004AE11D256007A64EA74F40F18A80002107918B46A548E5
:202890008178FF2904BF00200DF04AF8386890F8A0000DF071FA80463868C07A98F82691CE
:2028B000022818BF032808F5907A06D106F10D000EF000F808B906F1070B514648460DF018
:2028D000F5FF88B33868807A002818BF012804D1314650460DF0E6FF04E0524649463046B2
:2028F0000DF0DCFFFF2834D005FB00F906EB090506225146E81D0DF043F916F80900396818
:2029100040F00209E81D07900622887E00F0010088F8260105F1010A386800F1140108F566
:2029300090700DF02DF914E0514648460DF0B2FF78B15246494630460DF0B0FFFF2808D02C
:2029500006F10D01454348190DF0B4FF08B949F0020908F12C004B46017806914289120918
:2029700005920122B8F822100491C0880799029140080390CDF804B0CDF800A0002098F832
:2029900006100DF09BFF84F00400BAE020060FD5002100230691059104910393029101919D
:2029B000009101223B200DF089FF84F08000A8E0E0044BD5F11D06F10D000DF067FF3868DE
:2029D000017A012918BF042931D1C17A02291EBF0329817E01292AD1817E00F1140230462D
:2029F0000DF05CFFFF2811D04543354405F10D000DF060FF50B9E91D05F10D000DF046FFB3
:202A100038680622E91D14300DF0BAF83868C07A022818BF03280AD106F10D000DF04AFFBA
:202A300028B938680622F11D0C300DF0A9F83A4842683A4800784FF480510BF06FF810B198
:202A50008E2008F049FF84F480505AE0A00505D50DF02FFB324901200860FEE7600504D529
:202A700005F0E3FD84F480604BE0600405D5812008F032FF84F4804043E0A10440D5294D5B
:202A9000286810B100200CF04BFF274E4FF0FF3028600DF0F7FE3168244D51F8202F6846C2
:202AB00090472349234B486A8A6A009001920293C86A0268086A0392ADF810000A6B1178A1
:202AD000002904BF5068002805D19068002804BFD068002806D02970506868609168A96010
:202AF000D068E86029463568134A2E6813486B46B0471349086004F08DF884F4005000E05F
:202B1000002009B0BDE8F08F204F0020AC450020104F0020684E0020784E00206E4F0020F0
:202B3000FC002043044F0020F04E0020684500208819002045FF00002C4D00205024002056
:202B5000EC4E0020BB482DE9F84F0025BA4CB849056094F8E200002800F06581012800F095
:202B70002F81B64E02283CD0032840F05C8151F8250CD4F8B8100029A0F5C060C4F8D400A7
:202B9000B8BF49420028B8BF4042814226DA4FF08057D7F8A4014568B4F8BC0030214FF40C
:202BB0007F42082300903046A847D7F8A4014568B4F8C00004214FF4F802122300903046FA
:202BD000A847D7F8A401B4F8D070456820214FF440620A2330460097A847012584F8D850D0
:202BF0001CE151F8258C0DF064FA2F4600B901273946934F38680028FCD0B146012609F110
:202C10000409D9F82CA03E6009B10DF058FACAF30720C4F8BC000DF04CFAAA4600B9B24613
:202C30003B68002BFCD0D9F800B0BAF1000F3E6001D00DF044FACBF38440C4F8C0000DF00A
:202C500038FAAA4600B9B2463B68002BFCD0D9F81C90BAF1000F3E6001D00DF030FAC9F36E
:202C70008120C4F8D000B8F5C061C4F8B81000F09C8094F8D80068B9C4F8D410D4F8C00008
:202C9000C4F8C800D4F8BC70C4F8C470D4F8D030C4F8CC30D4F8D400D4F8BC30002854BFA1
:202CB00002226FF0010204F1C8010F6800EB40008018421000EB927207EBA2000860D4F87D
:202CD000C810C4F8C43000291CDD1E293CDDD4F8CC0030B93429B4BF15391E21C4F8C81068
:202CF00025E02A29BABFD4F8C8000B381E20C4F8C800D4F8C4003F28B4BF401C3F20C4F879
:202D1000C4001FE0D4F8CC00032812D011F10B0FC6BFD4F8C8000B30301CC4F8C800D4F82F
:202D3000C4000028C4BF401E051CC4F8C450032508E011F1150FC6BFD4F8C8001530301CE5
:202D5000C4F8C800C4F8CC504FF08057D7F8A401B4F8C43030214FF47F42456837480093C9
:202D70000823A847D7F8A40104214FF400321123456832480096A847B4F8C860D7F8A401F3
:202D900004214FF4F802122345682C480096A847D7F8A40120214FF440620A23B4F8CC6047
:202DB000456826480096A84701E084F8D85040F2FF50404502D8801C40452FD2082030E0A4
:202DD00051F8251C1F4F4BF2F5204843060A3868C0F3814001280CD11B48006800688047EA
:202DF0000BF0E2F80DF071F93111C010484306EBE03694F8E50030B91448006820F07F40F6
:202E10003618760801E084F8E5501148310C0660012741600F4D8760287808B90B2000E0D0
:202E3000052084F8E40003F09DFCBDE8F88FC0462D400C402C500C401C14002000A00C4082
:202E500000800C40B43F0050EC010010102009403C600C40451801002DE9F84FB34D696869
:202E700084B0019121B905B0BDE8F04F0DF006BD0978DFF8BC82AF4EDFF8BC92DFF8BCA25C
:202E900001291CBF0229042946F2A81741F64C5B05D0402918BF802900F096803CE10DF012
:202EB00045F90028FAD00198007804F0F3FF0090446814B900200CF033FD9AF801000028CB
:202ED0005CD000F0ABFF0CF057FF02900168009801914F6809F0DCFA022825D000990A78E5
:202EF000012ADBD196490A68137A19F80310317018B90DF0BFFC5844A0602069C17E01F06A
:202F1000EF01C1762069C17E41F08001C1762069C17E01F0F00141F00201C1762269B96808
:202F300088484118D1614BE001980178802911D10820854930700A78012A03D09AF80100B5
:202F5000022801DB38690CE0D8F828003A690178D1720DE07C49072030700A783869012AB0
:202F700002D10121C17203E0D8F828104A78C2720298817901988AF80210C8E0009800280F
:202F90008CD00199009A0078914205D101281CBF00200CF0C5FC15E0012840F0BD80684854
:202FB00001680A7A19F8020030700DF063FC3918A0680DF05BFC18B90DF05CFC5844A06096
:202FD0000120A8700098A2E09AF8010000287AD000F024FF0CF0D0FE044620680290476899
:202FF0009AF802000CF0C8FE03900DF0A5F810F0070F3DD0A87804F04DFF019041680198E8
:203010000091029909F044FA022831D001990A78012A2AD14A490A68137A19F80310317079
:2030300028B90DF027FC83440098C0F808B000980069C17E01F0EF01C17600980069C17E18
:2030500041F08001C17600980069C17E01F0F00141F00201C176009AB9683A4841181069DB
:20307000C16101210198A97051E000200CF058FC0398A04225D0029833490278802A12D11A
:20309000082030700978012903D09AF80100022803DB38690121C17210E0D8F828003A69BE
:2030B0000178D1720AE0072030700978386901290EBF0122D8F828104A78C272A0798AF8BE
:2030D0000200029823E00DF037F810F0070F29D0A87804F0DFFE04462078D4F804800128BA
:2030F00020D117490868027A19F8021031700DF0C1FB3918D8F808000DF0B8FB20B90DF057
:20311000B9FB5844C8F808000120A870204605B0BDE8F04F06F052BC05B0BDE8F04F002092
:203130000CF0FEBB05B0BDE8F08F00BF58250020BC1901006F4F0020289A0110684E002038
:20315000104F0020F0D8FFFF734F00202DE9F84FDFF8B8A20F460446F80B80F00B81A64E18
:20317000DFF88882B80F80F0BC80B80880F0B0803809C0F0318108200CF0C0FF002840F0AD
:20319000A28080200CF0BAFF002840F09C80684607F0B0FA012803D10098002800F0938025
:2031B00091480078002840F08E8000250124E8B20CF0D8FD48B1837A3BB1847290F9090029
:2031D00004FA00F0C0B20BF0ABF86D1C032DEED345464FF0030905F1AC0085F810900DF0D5
:2031F00052F88348002301680360824950F8082C98461A4640F8088C05F134000DF04FF8FC
:203210003068006B8047A968401A010BA869C1F1FF3282422CBF08444FF0FF30A861287F50
:2032300020B1E868A969B1EBC02F1ED90CF068F9414600B12146081C14D0704840F60901CD
:20325000018041464180427B64F303024273027B61F30302027341600CF04CFE418811F4C7
:20327000406FFBD02C774146A9616548016821F0020141F400710160624941F8049C41F2A8
:2032900030028A600C6050268E600C604FF4CA628A600C6041F80C4C4446046002200BF065
:2032B000F7F9112006F02CFB287818B9686838300DF001F8687F18B16C7705200BF0E8F98D
:2032D000514868612C7409F0ADFB27F0080783E005F0A0FA45467435286808B927F002077E
:2032F0007AE00CF0D6FFB3468146DBF85400016804208847D8B1207CC8B14546083528685A
:20331000A8B10646DBF80000E568006B8047801BE060000BE060A84202D240194008E060E1
:2033300040F6C41181422CBFB0F5FA7FE16048460DF098FA0AF0D8FF90B1A56920466FF45F
:20335000807100224FF00073A847464606F16C052868002808BF47F0020701D009F062FBCF
:203370002046646900214FF080630A46A04727F0005731E00CF08DFF51460E6846B306F18C
:20339000280106C90A234FF0E0450B40154008BF002B1DD106F1280191E8300006F1280329
:2033B00093E8060006F12803AA43A14383E806000DF058FAB16869B1002D08BF002C09D09D
:2033D00030692246B6F93C10B4682B46A04701E00DF048FA27F4804727B1504639465030FE
:2033F0000CF071FFBDE8F88F511E0020B81C00201410044021CD00008C0100101425002056
:20341000000004600C41044091970000381D00202DE9F04FDFF8A0B2804609AFFF200E469B
:203430001C460025ADF1240D97F8049007903F8830780592022805D17068008842F60211BB
:20345000814273D0304609F0A1FF5EA3069018B3401E0ED028460090019040F2262102900F
:203470000322039050A304904BA006F069FE0A208FE065A00090CDF8048040F22121029434
:203490000122039744A0CDF8109006F059FE5946142001F1040911E05DA00090CDF8048030
:2034B00040F213210294012203973BA0CDF8109006F046FE5946282001F10209B84214DDFA
:2034D00007EB040A50450ADBF06805992246C01907F0ACF9A9F800A00698079013E02846B8
:2034F00040F231214CA30D2504E028464FF40B7152A30725009001900290039003220490E6
:2035100025A006F01DFE0798FF280DD0DBF8080050B1066846B1E419A0B20090069A059BC2
:2035300041F230114046B047284632E0B9F1FE0F0CBF0FF22C190FF24419304609F026FF50
:2035500000904FF4FC71CDF804800122CDF808904DA3039510A0049506F0F2FD0097059A66
:2035700040462346314609F09DF9594608310F68051C0DD167B1786850B1304609F006FF8B
:2035900000947C68059B024641F230114046A047E8B209B0BDE8F08F646174615F73657220
:2035B000766963652E6300C041747472696275746520776173206E6F7420666F756E642E09
:2035D00000C046C05772697465417474724342203A20257320636F6E6E48616E646C652896
:2035F000256429206C656E28256429206F666673657428256429206D6574686F64283078DE
:20361000253032782900C04653747265616D00C0537472696E6700C0496E76616C69642022
:2036300076616C7565206C656E677468207761732072656365697665642E00C0416E2069C3
:203650006E76616C6964206F666673657420776173207265717565737465642E00C046C0E4
:203670002D20726573746F72696E6720626F6E64656420737461746500C046C02D204F548D
:2036900041207772697465005772697465417474724342202843434344293A2070617261E7
:2036B0006D3A20256420636F6E6E48616E646C653A20256420257300301500202DE9FC413D
:2036D000A0F2013714468846022F40F232819B4E9C493F1F0F2F04D9143F4CD0BF1E1CD053
:2036F00011E0DFE817F0CF00C9000D01FA00C100B9002601AF00A700100010009D008F0018
:203710007F00740066002A2880F21381B8F1020F40F00F818849238807E1B8F1010F40F021
:203730000881F078012800F00481324620781179107189B9002800F0FC805078012800F018
:20375000B580042800F0B280062800F0AF80052800F0AC80BDE8FC812078002840F0E980C5
:203770005078032800F0AF80072800F0AC80052840F0DF80A7E0B8F1010F40F0DA802078BE
:20379000012840F0D68006F1EC000CF0C3FB002840F0CF803446002004F13A0107F056FE11
:2037B000002840F0C68004F1C8000CF090FDBDE8FC81B8F1020F40F0BC8020880A28C0F241
:2037D000B880B0F5486F00F3B4808E1C17E0B8F1020F40F0AE802088B0F5FA7F80F2A98004
:2037F0000E460CE0B8F1020F40F0A38020880628C0F29F80B0F5486F00F39B803E36308037
:20381000BDE8FC81B8F1020F40F0938020880628C0F28F80B0F5486F00F38B803C36EEE741
:20383000B8F1010F40F085802078062880F28180454E0EE0B8F1010F7BD12078042878DAB5
:203850000A3606E0B8F1010F73D12078082870DA09363070BDE8FC81B8F1010F69D1207897
:20387000042866DA0836F4E7B8F1010F61D1207804285EDCF61DECE7B8F1020F59D1208858
:203890000E36BCE7B8F1010F53D13079012850D032462078D178D07069B9002849D050789E
:2038B000012803D0042818BF052842D101200CF059FBBDE8FC81207800283AD15078022869
:2038D00018BF052835D110780BF03EFA1C490246102003F0D7F8BDE8FC8106F183050021B2
:2038F0001F22284608F0F4F821464246284606F09DFF44463078B4710BF026FA002311E0B0
:2039100006F1640500211F22284608F0E1F821464246284606F08AFF4446307874710BF0A8
:2039300013FA01230094094901950246102003F0A9F8BDE8FC81C046D9E70000800C00202A
:2039500099450110C00C0020BA0C0020094501102DE9F04F8246DAF80070DAF804600C4650
:203970005FEA0208ADF11C0D14BF00214FF0FF31DFF8409248460CF062FA002818BF0B2001
:2039900040F0158100258F488C4905708A48FC6052460CF084FC317B27200CF082FCB8F1B3
:2039B000010F07D0657002200BF054F806200BF051F801E0012060702078012840F2AA8079
:2039D000801E012868D9801E012833D9801E012800F2DE800CF05DFC83464FF0805000F5C3
:2039F000EE77D0F8DC01A378466A009321782846062908BF0120019001200290A068228A39
:203A1000E1686368B047814658460CF02BFFB9F1000F40F0BF80B8F1000F02D00CF080F8DA
:203A300002E050460AF0EAFE002800F0A3803868806A2AE00CF02DFC83464FF0805000F55B
:203A5000EE77D0F8DC01012306680093A168A27860682478AC46042C08BF9C466346B04735
:203A7000814658460CF0FEFEB9F1000F40F09280B8F1000F02D00CF053F802E050460AF09B
:203A9000BDFE002876D03868406880474C49C1F8B0510D6081467DE00CF0FBFB83464FF004
:203AB000805000F5EE77D0F8DC01E38A86690093E0680190208B0290A0780390207D049046
:203AD0000121059122782846022A08BF081CE1786268A368B047814658460CF0C3FEB9F10E
:203AF000000F57D1B8F1000F02D00CF019F802E050460AF083FE00283CD03868006A8047F0
:203B10005FEA000946D1E078A168E28A236907F0E1FCBFE70CF0BDFB83464FF0805000F5D8
:203B3000EE76D0F8DC01E38AC7680093E0680190208B0290A0780390207D294604900120BB
:203B50000590257805B9014608466268A368E178B847814658460CF085FEB9F1000F19D11C
:203B7000B8F1000F02D00BF0DBFF02E050460AF045FE08B914201AE03068406980475FEAE1
:203B9000000907D1306802692169E078904781E74FF0FF39B8F1010F05D002200AF078FD7A
:203BB00006200AF075FD03480CF085FB484607B0BDE8F08F48180020801800209DF000006E
:203BD00050450240AC250020F0B507460020ADF11C0D0E46044664A500900322019464A33C
:203BF0000294DA2103942846049406F0A9FA64A3B81E09D0801E00F09E80401E7DD0401E83
:203C10005DD0401E3CD01BE0012E0CD00094019428460294ED2103940322049406F090FAE8
:203C3000EE215AA393E00094019428460294E82103940322049406F083FAE92158A386E08D
:203C5000009401942846029440F2051103940322049406F075FA0094204601904FF4837164
:203C700002900322039054A30490284606F068FA01208DF817009DF817000028FBD170E0EC
:203C90000094019428460294FF2103940322049406F056FA0094204601904FF480710290DC
:203CB000032203904AA30490284606F049FA01208DF816009DF816000028FBD151E00094F4
:203CD000019428460294F92103940322049406F037FA009420460190FA21029003220390B6
:203CF00040A30490284606F02BFA01208DF815009DF815000028FBD133E0009401942846B1
:203D10000294F32103940322049406F019FA009420460190F42102900322039036A3049035
:203D3000284606F00DFA01208DF814009DF814000028FBD115E00094019428460294E0218E
:203D500003940322049406F0FBF9E1212EA30094204601900290039003220490284606F075
:203D7000EFF907B0F0BDC0466D61696E2E6300C03E3E3E535441434B2041535345525400C9
:203D90002A2A2A4552524F522A2A2A003E3E20494E5445524E414C204552524F522100C009
:203DB0003E3E20494E5445524E414C204657204552524F522100C0463E3E2044454641556B
:203DD0004C54205350494E4C4F434B2100C046C03E3E2057524F4E47204150492043414CB6
:203DF0004C2100C03E3E204943414C4C2054494D454F55542100C0463E3E204943414C4C16
:203E10002041424F525421003E3E204F5554204F46204D454D4F5259210070472DE9FE4F5C
:203E30008A4C617811B900200BF07AFD0CF022FD06464FF0000806F6C4160027844DDFF814
:203E5000149211E038460BF097FF417951B12A68817902F8081008F101015FFA81F831460E
:203E70000CF0FCFC7F1CFFB299F800008742E9DB6178884505D000200BF052FD82200CF051
:203E9000E9FC6078012840F0C380002701E07F1CFFB299F80000874280F2B48038460BF0EC
:203EB0006BFF064670790028F1D02968B0790A7890421CBF00200BF033FDB079A0E02868FD
:203ED00010F809000BF058FF00684268DAF808109068814204BF3E4609F1010900F0A68057
:203EF000A8E0286890F800B001224FF4C0710FE0636803F5AD76835C01FB03F901FB0BFE1A
:203F100036F809C036F80E60B44538BF9B46521CFBB29A42ECDB4FF6FF700CF097FC0646E0
:203F300058460BF029FF4C490068D0F804A00868D94630F8192060684FF4C07300F10E0119
:203F500003FB09F3C85AB2EBD00F52D2720840F6C410424300920027404A0190029217E02D
:203F700058460BF009FF01680A78802A03D1DAF81030009A5A610978402908D10299807969
:203F90000A6802EB4011009800F5A060C8617F1C47452EDA2868C05D8345F8D001464FF4B5
:203FB000C073594363685A1803F5AD73D289595A53088B4202D2521A9045E8DA0BF0DCFEEB
:203FD00001684A68019B9168DAF808207008A1F6C41103FB00200CF049FC0028C0D01E48C6
:203FF000006830F81910491C20F81910286810F807B01948026800215B4622F8131058469B
:20401000BDE8FE8F00200BF08BFC82200CF022FC617828680CF016FC286800780BF0ACFEDC
:2040300000260068D0F804A04FF00109771CC145FFF645AFF6B2002E1CBFF8B200287FF4B5
:2040500050AF286890F800B065E700BF684E0020004F00207B4F002084250020844E002094
:204070002DE9F04385B011F8017B0446082F04F1FD0004F1FC0804F1760504F5A076844A74
:20409000844BDFF8149213D0092F21D00F2F2FD0112F01BF287801286878102840F0D58015
:2040B0000A78327648787076012184F83D11EBE00025521C4E5D5F5D3E434E55575D3E4019
:2040D00046556D1C082DF5DB204608F0ABF974E00024571C0D5D1E5D35430D553A5D15400F
:2040F0000555641C082CF5DB022088F80000CBE098F80100820704D410F0110F57D01A2210
:2041100066E008784A7800EB02203080CA78887800EB022070804A79087900EB0220B0808A
:20413000CA79887900EB0220F080087A30724A7A887A02EB00227281C87A0A7B00EB0220EE
:20415000B0818A7B487B00EB0220F0810A7CC87B00EB022030828A7C487C00EB0220708287
:204170000A7DC87C00EB0220B082487D897D00EB0120F082494801788A0658BF1A2212D508
:2041900004F5A670049071890391307A029021890191F0880090B38872883188204607F013
:2041B0006FFEE0B11E2298F80100410710D40F2088F8150020460CF041FB002864D199F8A4
:2041D000000005B0BDE8F0434FF4804105F038BB204605B0BDE8F0430F210CF02BBB708859
:2041F000A882B188E9820221F0882883297400206882A18EA88AC91DE981618EB0EB510F59
:2042100002BFE88AA18E884202BF288BE18EB0EB111F18D02878012804BF68780F2805D054
:20423000687918B10F21A972FE2127E0FC2120460CF0FCFAF0880090B38872883188A079CF
:204250000CF0F0FA20E0102118E0491E20460CF0E5FA032F18D1A878042818BF0D2813D140
:204270006E78142E18BF0E2E0ED12F7820460CF0D1FA012F06BFAE72FD213146204605B07B
:20429000BDE8F0430CF0D2BA05B0BDE8F08300BFEC4D0020742500206E4F0020144E0020B1
:2042B00010B50B7884074CBF43F0020303F0FD0304064CBF43F0800303F07F0304074CBF8F
:2042D00043F0080303F0F70384064CBF43F0200303F0DF0310F0AA0F0B7003D0107840F024
:2042F0000C0003E018B9107800F0F300107010BD2DE9F8430D4600272878022814461E46E3
:2043100067D1696808784978DDF8208000EB012080B25FEA08021CBFB0F5285F0B205BD1DF
:204330004FF42851401A08D0401E21D0401E2FD0401E25D0401E31D04BE0DDF82490E8681D
:204350000BF0CFFF80B2A0EB08024A45BCBFA0EB08001FFA80F909EB0800162806DAA6F8D6
:2043700000904A46E86800EB08010DE00D2732E0E8680088022131802070000A60702AE076
:20439000062030800622E96820460BF0F9FB22E001203080E9680A7822701CE0E868B0B184
:2043B000082131800288227003881B0A63704188A1704288120AE270818821718288120AA1
:2043D0006271C188A171C088000AE07103E0308001E0378001273846BDE8F2832DE9F047C4
:2043F0000F46814638780024022890461D466DD17868089E01784078DFF8D8A001EB002109
:2044100089B24FF42852891A06D0491E29D0491E4ED0491E39D059E0F8680BF062FF80B29F
:20443000B04204D3A919162903DB0D244FE007244DE0FB682A46414698190BF0A1FBAD19A4
:20445000F868ADB2C5F11602002140190BF047FFDAF8000000281CBF0268002A37D0002173
:2044700023E08EBB022DE0D198F8000098F80110FA6800EB01201080DAF8000000281CBFFC
:204490000268002A23D001210FE0EEB9062DCCD1F868062241460BF073FBDAF8000000288B
:2044B0001CBF0268002A12D00321484690470EE056B9012DB9D198F80000002813BF0128AA
:2044D000F9680870802402E00B2400E001242046BDE8F08794250020FEB57748774A007833
:2044F000774C784B78490D2840D8DFE800F0E307070707DBDB5EDB9A9AB8B8BF146041F269
:20451000044572494C88AC421FBF4E8BAE424F8EAF4203D11D806E4810607AE0002C6D4D79
:204530001C804FF4A05639D0641E3CD0641E35D040F2FE37E41B1AD0241F012C1DD94FF47F
:204550007F77E41B1BD04FF44067E41B0FD0A41E012C0CD9241F0AD0641E012C0DD940F2EB
:20457000F937E41B012C19D9241F08D09AE0022814BF1E80584D15604BE0584DFBE7584841
:2045900003681C7A012C05D141F20240488048834886F0E74E804E834E86ECE700200BF0F9
:2045B000BFF9832082E08F2080E04E488178FF2954D0146018204C4C41432068851C40F221
:2045D00004466C5A1C80A41B012C484B72D94FF47F76A41B0FD04FF44066A41B032C84BF65
:2045F000641F012C0BD9A41E012C63D940F2FD36A41B08D103E0801C41F2014444521360EF
:2046100004F0CCFB05E000200BF08AF985200CF021F903B0BDE8F04035480078012105F0FD
:204630000FB940F204424888188090421CBF41F2084290423ED041F60402904211D12D4C4E
:204650002D482E4B00680025CDE9004502222C4C256855F8086FB0472A490880F7BD488871
:20467000188000200BF05CF985201FE04888188002280DD940F20442801A1BD040F6FC7265
:20469000801A05D0083815D04FF47F72801AE8D1887B801CC2B2B52AA8BF662088730020F5
:2046B0004880F7BD00200BF03BF98420BDE8FE400CF0D0B8F7BD00BF6F4F0020204F002034
:2046D00067020100504F0020CC4C0020204A002059550110615A0110B1540110755B01105D
:2046F000104F0020684E0020804E0020313901106E4F002002000080EC4E002071E70000DB
:20471000F04E0020424F00207CB5894D144602460026A2F58062182A1AD8DFE812F0FE0037
:20473000F800F100E900E200DC00D500D0001900C500BE00B700AE00A300190019008000DE
:204750006F00680054004C00420039002C0024002A2880F28580022940F0828021880AF03E
:2047700033F80646E1E0012940F0DE80002C00F0DB801135A6E0102940F0D680002C00F01B
:20479000D38028465030102221460BF0F9F9CCE0012940F0C980002C00F0C68029468D1D78
:2047B00090E0262940F0C080002C00F0BD8005F160002622E8E7012940F0B680002C00F048
:2047D000B3806D1D7EE0602900D13CB9012940F0AB80002C00F0A8800D3573E005F1860085
:2047F000214660220BF0CCF9012068739DE0012940F09A8020780CF009F896E0012940F0AE
:2048100093802078022800F38F800C3528702078022814BF301C01200BF0F4FF85E0072953
:2048300040F08280611C684606220BF0A3F820786946324605F0E0FB04460A2C10DA0BF059
:20485000DDFF38B9204603F04BFC0AF0D3FC08F04BFC6AE02A46012002F12C05285564E013
:20487000022662E001295FD1A87B21780028A9735BD12078012858D1E9E7012954D1247893
:20489000072C51DB102C4FDC0B3537E001294BD124780A2C48DA093530E0012944D1247888
:2048B000022C41DA083529E000293DD10BF0A6FF10B90BF0F9F9C8E701240F351EE001298C
:2048D00032D10A35247819E001292DD12478022C2ADAED1D12E0102926D12B4603F140002A
:2048F00051E7012920D12478022C1DDA2D1D05E0012919D12478042C16DCED1C2C7014E0FA
:20491000012911D12478022C0EDAAD1CF6E702290AD120881435288007E0012904D1247802
:20493000022CD8BF6D1CE9DD182630467CBDC046941100202DE9FE4F05467B48002400689E
:204950000094C00905D37948007810B9202009F06FFF012D40F0E280DFF80092D9F8DC0093
:20497000012840F0D8800220C9F8DC000BF078F8012009F05DFF5FEA000805D00120C9F8CE
:20499000DC000BF079F8CBE00BF099FCA34602906748684DC0F800B0A86A016801208847D2
:2049B000012804D1584607F0A9FD012000906248624FC0F800B0386811200BF099FB00B129
:2049D000012410200BF094FB08B144F002040F200BF08EFB08B144F004040B200BF088FBA4
:2049F00020B12868564E016B308888470A200BF07FFB20B12868534E016B30888847524881
:204A1000012606602868816944F0200088474F4806600BF067FB00F001010191400814D250
:204A3000286A81684A4888478246BAF1040FF7D0BAF1010F04D1286A4268454803219047E9
:204A50004449086820F003000860584600F088F82B683868986B8047019801280CD0BAF17A
:204A7000010F04D1286A42683948314690473949086840F0030008602F4806602868416992
:204A9000204688470B200BF033FB20B128682C4BC16A188888470A200BF02AFB20B1286860
:204AB000284BC16A18888847274806600322C9F8DC20264BC3F800B02868416B20468847D5
:204AD0000128F9D13868042009F0B2FE0446184806603868144800688009FBD300980128DA
:204AF00002D1304607F00AFD0BF0E9FA082009F09FFE07460298C9F8DC600BF07BFE16480D
:204B1000008807F067FA0AF0B7FF57EA040018BF4FF0FF3804E06FF0040801E06FF00108CB
:204B30004046BDE8FE8FC04614100940041500200C400940B8010010000222432C200940A7
:204B5000FE130100FA13010028200860800104430040034024220840401801001C140020F3
:204B70002DE9F84FDFF804B20746ABF13500DFF8F0810068800880F0E28075480068006886
:204B900080477E490831D1F8009000254FEA29715FEA995201F101010AD2C0F13E0210F1F7
:204BB0000A0F4FEAE202D8BF08229142B8BF111C684BD3F87C21C2F30462162AA8BF203A40
:204BD0001B68C3F30443162BA8BF203B9A465218162A05DA12F10A0FB8BF6FF0090200E0FC
:204BF00015225D4B5D4E02F01F0141F4F8511980316811F0030F18BF0125C90828BF45F05C
:204C100002050FB145F00405434693F90710411A052904DA9979A94208BF99886FD0DFF8F1
:204C300044E10F28A0F10F0829DB08EB0011A1F1F0084FEA28210091072984BF072100918F
:204C5000062988BF06215EF821600424774604EB81043C594FEA950CA41BEE0804F0FF015F
:204C700024BFC4F3072631446F08AE0824BFC4F3074631446E0828BF01EB146104E000219C
:204C90004FEA950C6F080091009C5EF824E05FEA5C060EF0FF0424BFCEF3072634447E08B1
:204CB00024BFCEF3074634446E0828BF04EB1E64009E89B2A8EB06267143803104EB11248C
:204CD000AAEB02010029D8BF0121342209F0FF074A4391B24FF6FF727943B1FBF4F18A4256
:204CF00038BF111C802889B205DA10F1800FB8BF6FF07F0000E07F209980D8719D711A4888
:204D100000681F2918604FF0000008D340F2FF128A4206D24908401C8A42FBD301E01F21F2
:204D30009980134F0F39090940EAC10047EA0001CBF8FB1F0026CBF8FF6FBDE8F88F0D49BB
:204D50000D4F434608200F609B1D1870BDE8F88FEC0100103C1100506E620840242208401B
:204D70007C2500209C130050082009403500094000E7A48030100940FDFDA400AC3F005007
:204D90002DE9F04F804C0546E06893460F462E1CADF1140D16D0761E06D00095002040F2E1
:204DB000311139A305465BE00646002047A240F22D1104F1040804F1100914254FF0010AE8
:204DD00084460AE0002043A24FF4917104F1020804F1240928258446E246009201970346F2
:204DF00002900122CDF80CC023A0049330A305F0A7F9BD422FDB484659463A4605F016FDDD
:204E1000BAF1000FA8F8007032D0B078002808BF32A103D001280CBF37A13DA13088002770
:204E300000903D46012201913EA3029740F24111039511A0049505F083F906200090534FF1
:204E5000207804F14C0349462A4601903046029704F0D2FF0CE0009700204FF4A5713CA327
:204E70000190029503900322049003A005F068F905B0BDE8F08FC046646174615F73657293
:204E9000766963652E6300C0536574506172616D657465723A20506172616D657465722022
:204EB000232564206E6F742076616C69642E00C0536574506172616D65746572203A20253B
:204ED00073206C656E3A20256400C04653747265616D00C0537472696E6700C01B5B3333C8
:204EF0006D4E6F74692F696E642064697361626C65641B5B306D00C04E6F746966696361D9
:204F100074696F6E20656E61626C656400C046C0496E6469636174696F6E20656E61626CF2
:204F3000656400C0547279696E6720746F2073656E64206E6F74692F696E643A20636F6EB0
:204F50006E48616E646C652025782C20257300C04C656E677468206F757473696465206225
:204F70006F756E64733A204C656E3A202564204D696E4C656E3A202564204D61784C656EF1
:204F90003A2025642E00C046301500209D7000002DE9F0410446804DA178A869ADF1180D2D
:204FB000891F00F0F280C91E00F0DD80491E5FD0491E48D0C91E3CD0481E40F0E980287AFA
:204FD000697AB8B96878002831D0A0880BF00EFC071C00F0DD80A07A40080FD3787968B179
:204FF000E168890A0AD2B91D01AA05F005F80A2804D10321A0880BF0F5FBC9E0287B0228C2
:2050100002D1A07A0009F4D3A088797904F1080201F070FCA869002800F0BA804368002B14
:2050300000F0B68000210A46A0889847B0E00521E0E7002800F0AC804368002B00F0A88013
:2050500062780221F0E70AF085FF002800F0A080A86950B1076847B1206900906189227B9D
:20507000637BE01C3C46A04792E060890121C2E767784FF00008002F66D1A179490863D38A
:20509000EF69002F60D101A841460E220BF027F9A0880BF0ABFB071C7AD0606940B97879E4
:2050B000B91D06228DF80A0001A80AF069FD19E06669307C062206F111018DF80A0001A86D
:2050D0000AF05EFD07F10C00B91D06220AF058FDB81D062206F111010AF052FD307C40F0EF
:2050F00002007871A079C00839BF387900F0FD00387940F002003871A079000939BF3879E7
:2051100000F0DF00387940F020003871A1799DF81120C1F3800010438DF81100080905D320
:205130009DF8110040F008008DF8110001A8214600F022FD28B92878022104F081FB404632
:2051500027E0A8694FF0150810B3436803B3A088627801219847B8F1000F19D0A869436847
:205170000321424660E7E078211D002204F044FF0A280DDA410001EB800004F10C0225301F
:205190000421C0B203F052FA02E0A08808F04EF9012006B0BDE8F081941100202DE9F04FD9
:2051B000044672488E46016894461F46BEF1000FADF13C0D4DD0BCF1000F4AD09EF8002011
:2051D00001209040014244D0BCF80000B0F5C15F32D1DCF81400DCF81860654BDCF81C50D7
:2051F000DFF890A10B904FF003080DF128090C9618680D95C0F3036B59F8046FCEB100213A
:20521000351F05200B4655F8042FB2F1FF3F10D0924506D0401E01F1040103F10103F2D1B6
:2052300007E0052B05DA705820F4702040EA0B407050B8F10108DFD1C4F804E0C4F808C041
:205250000BF027F84C4D8046287820B140460BF009FB002087E002F0F3FC4849086840F036
:205270000200086007A80AF04DFE002605F1D00007AA4349099608F0D3FE424905F58270B8
:2052900007AA08F0CDFE07A80AF00CFEFF20192107AB3D4A089005F1340008F047FE3B4AC1
:2052B00005F150001A2107AB08F040FE3849324605F18800134608F041F83649324605F187
:2052D000AC00134608F03AF8334A05F120000421334609F003FF0E2004F02AFC05F17400B1
:2052F0000AF00EFD05F16C000AF00AFD2E740523EB60072085F898012E77AE616E772849DA
:20531000AE60264A69612B781670581C287040460BF0A8FAB1461FB968460AF005FD6F46AF
:2053300038682060388A6082012060747B6813B940F6C4130646E3601A48A061267460619B
:20535000F86800B1A061B86800B160614946582204F1200006F0BCFB04F13800494609F019
:2053700077FD6C6020460FB0BDE8F08FD4210840541300500200F844B81C00200020094005
:20539000B9FA0000B193000021CD0000B1C60000F1F4000089F8000069D60000A625002011
:2053B00091970000579000002DE9F0477C4C2369E5680F4691460FF2D40A011CADF1180DF5
:2053D00011D0491E07D000220746154640F2471133A328464DE043A040F24311A61D04F1B8
:2053F00002081D4605E041A04FF49C71261D04F1010800900197002002900122039032A374
:205410000490504604F09CFE022F2CDA5FB3404649463A4605F00AFA3780A878002808BF27
:2054300034A103D001280CBF39A13FA12888002700903E460122019140A3029740F2571150
:2054500003965046049604F07BFE07200090554F207804F114034146324601902846029770
:2054700004F0CAFC0FE0012200204FF4B0713EA31546009701920446029503220390504637
:20549000049404F05DFE06B0BDE8F087627574746F6E5F736572766963652E6300C046C000
:2054B000536574506172616D657465723A20506172616D6574657220232564206E6F7420B7
:2054D00076616C69642E00C0536574506172616D65746572203A202573206C656E3A202501
:2054F0006400C046425554544F4E3100425554544F4E30001B5B33336D4E6F74692F696E30
:20551000642064697361626C65641B5B306D00C04E6F74696669636174696F6E20656E61B1
:20553000626C656400C046C0496E6469636174696F6E20656E61626C656400C054727969A9
:205550006E6720746F2073656E64206E6F74692F696E643A20636F6E6E48616E646C6520E1
:2055700025782C20257300C04C656E677468206F75747369646520626F756E64733A204C0A
:20559000656E3A202564204D696E4C656E3A202564204D61784C656E3A2025642E00C04683
:2055B000781600203D6F00002DE9FE4F0E468246307AC10693461F464FF000090CD558468C
:2055D0000BF00CF9030000F0E8800A223146504698475FEA00094DD130780C9D0D9CDDF809
:2055F000388002281AD170680178407801EB002189B24FF42052891A012910D9891E3AD061
:20561000491E14D0FD397AD0491E00F08180491E6DD0491E73D0491E00F09580ABE0002CE6
:205630002AD1F068017829800278416887E0002C22D101202880F1680A783A7000217089D4
:20565000401C80B20BF0C6F8298860B10278921C51182980418979704289120ABA7041688A
:205670000278F81C6CE0091D298004220021781C0AF035FE93E0002C66D1F0680688042188
:2056900029803E70320A7A700DF1020130460BF0A1F8040021D0D4F80C80BDF802204FF609
:2056B000FF766B4631460BF091F840B9237862683C4802210BF086F808B9ADF8006098F8E5
:2056D000000002280BD1D8F804100222381D0AF057FA2888801C288001E0ADF80060BDF87D
:2056F0000000B870BDF80010090AF97057E0002C2AD1F068016850460AF0C4FB02E01CBB0A
:20571000F0680088022129803870000A787046E0F0680AF0E6FD80B2A042B8BF4FF00709FE
:205730003DDB844208BF002205D008EB04028242B4BF4246021B2A8092B2F068011938460A
:205750000AF01EFA2BE014B14FF00B0927E0F0680721298002783A7043787B704188B97018
:205770004288120AFA7001793971C2887A71C088000AB87113E058460BF020F85FEA0009FF
:205790000BD00F980290CDF8048000942B463A4631465046C847814601E04FF00E0948466F
:2057B000BDE8FE8F0A1601002DE9F04F09AF3D7981461C468A460846ADF1240D3F8806924E
:2057D00007F084FE0026FF214BA3DFF8C8810790089108B3401E0ED030460090019040F2FC
:2057F000EB110290032203903CA3049037A004F0A7FC0A2066E051A00090CDF804904FF4E5
:20581000F37102940122039730A0049504F098FC404600F1040B0FE04AA00090CDF8049088
:205830004FF4EC7102940122039728A0049504F087FC404600F1020B05901FBB07EB04089C
:20585000B8F1020F18DAB8F1000F03D1182D10D0122D0ED0DAF80C0006992246C01904F00C
:20587000E5FFB8F1000F1BD0ABF800800798089016E040F2FF1101E04FF4FB71304633A323
:205890000D2604E0304640F2F11139A307260090019002900390032204900CA004F050FC43
:2058B0000898FF280DD00598806850B1056845B1E419A0B20090079A069B41F21011484648
:2058D000A847304609B0BDE8F08FC0466C65645F736572766963652E6300C04641747472B9
:2058F000696275746520776173206E6F7420666F756E642E00C046C057726974654174743F
:20591000724342203A20257320636F6E6E48616E646C6528256429206C656E282564292021
:205930006F666673657428256429206D6574686F64283078253032782900C0464C45443151
:2059500000C046C04C45443000C046C0496E76616C69642076616C7565206C656E67746800
:20597000207761732072656365697665642E00C0416E20696E76616C6964206F666673656E
:205990007420776173207265717565737465642E00C046C0E81700202DE9F04F754F1E4696
:2059B000ADF1340D01914FEA960902923D680090710809F1020221F0010105EB8200091DA3
:2059D0000390901805EB80000490501805EB80038018059305EB8000079026F0030000F15C
:2059F000080802EB080005EB800340180893801805EB80000990C6F39C008000083002EB91
:205A10004000411805EB800305EB810B0A938918831805EB8104404405EB8303C6F3990153
:205A300005EB80008900069038680B930A010021803206F04DF84849DFF820A10968284668
:205A5000AAF1880290470746B94518BF6FF001007ED128465546394605F168029047019811
:205A7000314609F03DFE002818BF012070D10298314609F035FE002818BF022068D10398D8
:205A90000199A84704980299A847009881680598A847334B0399059A20469946C847012804
:205AB00002D1BD0066590EB1032051E020460021424606F00DF80499059A2046C847012890
:205AD00001D166590EB1042042E0274B254D079803991E462A46B047089804992A46B04792
:205AF000079909980A46B0470A980999079AB0471E4D0B9807992A46B0472046002128224C
:205B100005F0E6FF1A4B0A990B9A20469946C847203520462A460146C847089958460A468A
:205B3000B04706980021424605F0D2FFFDB25846002D0CBF0122FAB20021635C455CAB42CF
:205B500018BF052004D1491C521EC9B2F5D100200DB0BDE8F08FC0468C4F0020B9DB0010A8
:205B7000C9DE0010EC1A0020F9E00010F0140100C9E60010884F00202DE9FF478146714CB4
:205B9000DFF8BCA1E069884600284CD1B9F1000F00F09480B8F1000F00F09080484609F069
:205BB00007FA05460A2D23DAD8F814702574002F37D0680010216A4600EB85002330C0B2B4
:205BD00009F0E8FD90B950460778FF211022684609F007FF50B93FB999F80600494600F063
:205BF00001000AF0E7FD01E00120A074E0691AE004F1E6070A2600253846FF21062209F067
:205C1000F0FE68B9761E07F10E0705F10105F3D1607C002804BF0A2020744FD094F836504E
:205C30002574E06900E0257C0A2D47DA002835D168000E214A4600EB85002030C0B202F020
:205C5000F5FC207C07F054FD6846FF2110220AF046FB207C10216A467030C0B202F0E6FCC1
:205C7000217C0E220801A0EB410000194946E63009F086FFD8F814206AB15046007840B910
:205C9000107C02F11101002300F001000AF08EFD01E00120A074C4F81C804CE08268002A1C
:205CB0003ED10269002A2FD142690ABBC2683AB9A07B08B108F046FF09F05DFD01203BE003
:205CD0006800102100EB85002430C0B202F0AEFCE769217CFA68480000EB810010322530AF
:205CF0000421C0B202F0A2FCE1690020C86022E06800102100EB85002330C0B202F096FC87
:205D1000E1690020486116E068001C2100EB85002230C0B202F08AFCE169002008610AE05C
:205D300068001C2100EB85002130C0B202F07EFCE1690020886000200090BDE8FF87C046DC
:205D50005A4F0020941100202DE9F04F6C4CA068ADF13C0D002800F0858004F1B80B4FF095
:205D70000D0A4FF00A094FF0010878E00AF01AFD2178CA0002EB41125A44B2E8E01004AB7F
:205D9000A3E8E010E0CAE0C364CA4F1C07F01F0183E8640004F10C05627821708A4208BFA8
:205DB00084F802800AF05EFDBDF83630A6212FA2284609F023FE28460AF010F8049F4619D3
:205DD000B8B209F03DFC4AA20CCA02F0B0FB4AA20CCA02F0ACFB07F069FD009025A2A91BE5
:205DF0003B0C3046A63109F009FE284609F0F6FFBDF834704019BF1E04D07F1E14BF21A20D
:205E100029A200E031A206990091059B2F1A07F1A60109F0F3FD284609F0E0FF4219A068AA
:205E30002946521B0AF0EAF9099800900A9E01960B9F02970C9B0393089B079AA621284630
:205E500009F0DCFD284609F0C9FF421902F801AB02F8019BA0682946521B0AF0CFF9A078DC
:205E7000002883D00FB0BDE8F08FC04623253036752000C05B2025642E25303375205D20DF
:205E900000C046C01B5B33323B316D494E464F3A201B5B33303B316D2825733A2564292074
:205EB0001B5B306D00C046C01B5B33313B316D4552524F523A201B5B33303B316D282573F0
:205ED0003A256429201B5B306D00C0461B5B33333B316D5741524E494E473A201B5B33308F
:205EF0003B316D2825733A256429201B5B306D00000000000000F03E0000000000408F409D
:205F1000080200202DE9F0430546880FADF1140DC0F0BF80604C201D006840688768C66858
:205F3000406800B18047002F08BF002E08D009F005FF07B1B84706B1B047584809F0BAF888
:205F5000574809F0D7FF574A40F60A0CA2F800C000205080117B60F3030111735060517BA9
:205F70004FF0010969F303015173AB686E7C58801988A1F60201C9B141F21E07C91B15D0F9
:205F900041F6E677C91B012920D8597E012E60F38201597606D0198B21F47C7141F4347156
:205FB000198313E0198B60F30911F9E7597C012E60F38201597405D0198A21F47C7141F4FB
:205FD000347102E0198A60F309111982D5F8088068746146464600E03E46776817B13B884D
:205FF0009942F9D17260737B60F303037373E76E3FB1FB681B88CF1F9F421AD0891F994266
:2060100017D02F8CB7B1686205F12001488095F82C3060F3030385F82C3095F82D3069F35C
:20603000030385F82D305160517B60F30301517300E0A0601C4801688768C568009110224C
:206050006946406B019720F0784040F0805003901648029504F0EAFB09F070FE1448606191
:20607000607F68B91348006801684846884701280CD0707B69F3030070730F4F676105E04A
:2060900007F054FE0028FBD00AF011F9404609F031FF05B0BDE8F083B81C00200100070632
:2060B00001010E04142500204C130050180000215D310000E001001041CF00002DE9F04F97
:2060D000ADF1240D079001F0BBFD5F48007809F0DFF85E4D0024012806D90C3804D0401E65
:2060F0000ED0401E09D006E009F0A2FC022804BF01210C1C06D0696805E005211F2401E0F1
:20611000032107246960524A1068C0F38150012806D152F80C0C0127020E07FA02F00443EB
:2061300009F0E0FE05F1440AFF2253464018401E471C28607F1E03F8012BFBD1079A12682E
:20615000002602F0FF03FE2B1DD0DDF81CC0964633460EF0FF07FF2F0ED0B84205D3B9421C
:2061700003D80122BA40144201D0022069E016430EF0FF020AF802305CF804EF5B1C0EF03D
:20619000FF07FE2FE7D1092003F0D2FC07980121A86005F1280008F05BFE00274FF0010B70
:2061B000B9462846804600F198050BFA07F0044216D1064204BF07F0FF0141F4C04104D0D9
:2061D0001AF80700079951F82010224802F0AAFAF8B24FF0FF3109F063F9C5F8009001E0E1
:2061F00004202860D8F800007F1C2D1D8742DCD904A809F057FE184C184A2078102104AB78
:20621000059008F10C0007F091FE684609F07AFECDF80C906A4660681149029008F164000D
:2062300007F0FEFE0F4951F80D0C20F4F85040F4005041F80D0C0C4FC1F8FFBF4846C7F850
:2062500000B009B0BDE8F08FAD25002008130020B43F0050007FC767441901006DF80000C1
:20627000FDDC00000D3009400800094061480178002900D170472DE9F843491E032984B073
:2062900004D9891F012940F2B180A9E05A4CDFF86C912068DFF8688103685A4E03F108057D
:2062B000062205F1080102A809F06AFC0622A91C684609F065FC2878C1091D2700F00F02FA
:2062D000032AC0F3801537D16079C0F3800081421ED12169062202A809F082F900287AD031
:2062F000694628460AF0E2FA002874D0314668460AF0D8FAFF286ED04743D8F80000807A85
:20631000F519002818BF02280AD0012818BF032861D1F25D691C48460AF040FA10285AD007
:206330006B46EA1D294648460AF034FA06226946E81D09F025FC4EE000F00F00052855D1FA
:206350006079C0F38000814245D12169062202A809F046F900283ED0694628460AF0A6FAC7
:20637000002838D0314668460AF09CFAFF2832D04743D8F80000807AF519002818BF012875
:206390000AD0022818BF032825D1F25D691C48460AF004FA10281ED040F2024007F05EFEAA
:2063B0006B46EA1D294648460AF0F4F906226946E81D09F0E5FB1448144A41F20441418089
:2063D00041834186124801801249134811600121007803F035FA21680A680020107105E0E3
:2063F000002009F09DFA86200AF034FA05B0BDE8F08300BF6F4F0020F44B0020CC47002013
:20641000104F0020AC450020204A0020204F0020504F0020595501106E4F00202DE9F04F13
:206430000746ADF1140D0393002F02920E9801910F9C049000F0B680081C00F0B380101CD7
:2064500000F0B080181C00F0AD800498002800F0A980002C00F0AB80206A002800F0A280D3
:20647000564D666A281D0068002E00F09B80A16A0AF08CF940B2002808BF6FF0020700F0F0
:206490008D8084F82C002078618800EB80000918143188B2216A88474749086030B9284602
:2064B00040680AF06FF94FF0FF3777E08B46628823786088DBF8001025789E1800EB010A8C
:2064D000701800F1040805EB450002EB4306851876186D18C01805F10C098018401800F148
:2064F0001005204607F076F92078C01C8010CAF800002078C01C8010C8F80000207808364B
:20651000C01C801030602078C01C8010C9F800002078C01C80102860227839460AF1040006
:2065300004F084F92278019908F1040004F07EF922780299301D04F079F9237820464146CE
:206550003246FFF729FA071C12D100955046414632464B460AF012F947B22278039809F1AC
:20657000040104F063F922780498291D04F05EF921786288DBF8000001EB810152180021A0
:2065900005F0A6FA616ADBF8000088470B4840680AF0F8F8F8B2992808BF002784F82C7093
:2065B000384606E01CB16FF0010084F82C006FF0010005B0BDE8F08F884F0020E41A002044
:2065D00010B5401EADF1280D30D0401E28D0801E22D0401E1CD0401E0DD0401E07D0401EB7
:2065F0005BD1002040F2733131A304464CE040F2673131A317E040F2153006A901F0DEFC99
:2066100006A806F08BFF002440F2623131A33BE040F26F3139A306E040F26B313DA302E040
:206630004FF4567140A3002420462DE04FF4417008A901F0C3FC9DF821308DF81930002499
:206650008DF81C408DF81B409DF822208DF81A209DF825108DF81F109DF820008DF8180003
:206670009DF824309DF823208DF81E303C498DF81D2006AB586848601A680A6008A806F084
:206690004DFF40F253312BA30090019402940122039403A0049403F053FD0AB010BDC0469A
:2066B00070726F6A6563745F7A65726F2E6300C04572726F7200C046436F6E6E6563746524
:2066D0006420616E64206164766572746973696E6700C046436F6E6E65637465642E2050FC
:2066F00065657220616464726573733A201B5B33326D25731B5B306D00C046C0436F6E6EA7
:20671000656374696F6E2074696D6564206F757400C046C0446973636F6E6E6563746564A3
:20673000202F2049646C65004164766572746973696E6700474150206973207374617274BA
:2067500065642E204F757220616464726573733A201B5B33326D25731B5B306D00C046C0C3
:20677000CF0F00202DE9F843614C5A4D5A4EDFF870815E4F94F8E4100846401E0B2864D8AE
:20679000DFE800F07B2C43062343062343067664042907D001220A2945F8212C14BF0220B7
